{
  "_format": "hh-sol-artifact-1",
  "contractName": "PublicMinter",
  "sourceName": "contracts/PublicMinter.sol",
  "abi": [
    {
      "inputs": [],
      "stateMutability": "nonpayable",
      "type": "constructor"
    },
    {
      "anonymous": false,
      "inputs": [
        {
          "indexed": false,
          "internalType": "uint256",
          "name": "amount",
          "type": "uint256"
        },
        {
          "indexed": false,
          "internalType": "uint256",
          "name": "gas",
          "type": "uint256"
        }
      ],
      "name": "Log",
      "type": "event"
    },
    {
      "anonymous": false,
      "inputs": [
        {
          "indexed": true,
          "internalType": "address",
          "name": "previousOwner",
          "type": "address"
        },
        {
          "indexed": true,
          "internalType": "address",
          "name": "newOwner",
          "type": "address"
        }
      ],
      "name": "OwnershipTransferred",
      "type": "event"
    },
    {
      "anonymous": false,
      "inputs": [
        {
          "indexed": false,
          "internalType": "bool",
          "name": "success",
          "type": "bool"
        },
        {
          "indexed": false,
          "internalType": "bytes",
          "name": "data",
          "type": "bytes"
        }
      ],
      "name": "ResultsFromCall",
      "type": "event"
    },
    {
      "stateMutability": "payable",
      "type": "fallback"
    },
    {
      "inputs": [],
      "name": "BASE_PRICE",
      "outputs": [
        {
          "internalType": "uint256",
          "name": "",
          "type": "uint256"
        }
      ],
      "stateMutability": "view",
      "type": "function"
    },
    {
      "inputs": [],
      "name": "IS_FREE_MINT",
      "outputs": [
        {
          "internalType": "bool",
          "name": "",
          "type": "bool"
        }
      ],
      "stateMutability": "view",
      "type": "function"
    },
    {
      "inputs": [
        {
          "internalType": "address",
          "name": "to",
          "type": "address"
        },
        {
          "internalType": "uint256",
          "name": "tokenId",
          "type": "uint256"
        }
      ],
      "name": "mint",
      "outputs": [],
      "stateMutability": "payable",
      "type": "function"
    },
    {
      "inputs": [],
      "name": "owner",
      "outputs": [
        {
          "internalType": "address",
          "name": "",
          "type": "address"
        }
      ],
      "stateMutability": "view",
      "type": "function"
    },
    {
      "inputs": [],
      "name": "renounceOwnership",
      "outputs": [],
      "stateMutability": "nonpayable",
      "type": "function"
    },
    {
      "inputs": [
        {
          "internalType": "uint256",
          "name": "_basePrice",
          "type": "uint256"
        }
      ],
      "name": "setBasePrice",
      "outputs": [],
      "stateMutability": "nonpayable",
      "type": "function"
    },
    {
      "inputs": [
        {
          "internalType": "address payable",
          "name": "_address",
          "type": "address"
        }
      ],
      "name": "setContractAddress",
      "outputs": [],
      "stateMutability": "nonpayable",
      "type": "function"
    },
    {
      "inputs": [
        {
          "internalType": "bool",
          "name": "_isFreeMint",
          "type": "bool"
        }
      ],
      "name": "setIsFreeMint",
      "outputs": [],
      "stateMutability": "nonpayable",
      "type": "function"
    },
    {
      "inputs": [
        {
          "internalType": "address",
          "name": "newOwner",
          "type": "address"
        }
      ],
      "name": "transferOwnership",
      "outputs": [],
      "stateMutability": "nonpayable",
      "type": "function"
    },
    {
      "inputs": [],
      "name": "withdraw",
      "outputs": [],
      "stateMutability": "nonpayable",
      "type": "function"
    },
    {
      "stateMutability": "payable",
      "type": "receive"
    }
  ],
  "bytecode": "0x60806040526001600260146101000a81548160ff0219169083151502179055506706f05b59d3b2000060035534801561003757600080fd5b5061005461004961005960201b60201c565b61006160201b60201c565b610125565b600033905090565b60008060009054906101000a900473ffffffffffffffffffffffffffffffffffffffff169050816000806101000a81548173ffffffffffffffffffffffffffffffffffffffff021916908373ffffffffffffffffffffffffffffffffffffffff1602179055508173ffffffffffffffffffffffffffffffffffffffff168173ffffffffffffffffffffffffffffffffffffffff167f8be0079c531659141344cd1fd0a4f28419497f9722a3daafe3b4186f6b6457e060405160405180910390a35050565b610e11806101346000396000f3fe6080604052600436106100955760003560e01c80638da5cb5b116100595780638da5cb5b1461013c578063de4b326214610167578063ef5d87d714610190578063f2fde38b146101b9578063f86325ed146101e25761009c565b80633ccfd60b1461009e57806340c10f19146100b5578063477bddaa146100d157806362ac9c96146100fa578063715018a6146101255761009c565b3661009c57005b005b3480156100aa57600080fd5b506100b361020d565b005b6100cf60048036038101906100ca9190610800565b610349565b005b3480156100dd57600080fd5b506100f860048036038101906100f391906107d7565b610472565b005b34801561010657600080fd5b5061010f6104ff565b60405161011c9190610a72565b60405180910390f35b34801561013157600080fd5b5061013a610512565b005b34801561014857600080fd5b50610151610526565b60405161015e9190610a0d565b60405180910390f35b34801561017357600080fd5b5061018e60048036038101906101899190610865565b61054f565b005b34801561019c57600080fd5b506101b760048036038101906101b2919061083c565b610561565b005b3480156101c557600080fd5b506101e060048036038101906101db91906107ae565b610586565b005b3480156101ee57600080fd5b506101f761060a565b6040516102049190610b5d565b60405180910390f35b610215610610565b60004790506000811161025d576040517f08c379a000000000000000000000000000000000000000000000000000000000815260040161025490610abd565b60405180910390fd5b6000803373ffffffffffffffffffffffffffffffffffffffff1683604051610284906109f8565b60006040518083038185875af1925050503d80600081146102c1576040519150601f19603f3d011682016040523d82523d6000602084013e6102c6565b606091505b50915091508161030b576040517f08c379a000000000000000000000000000000000000000000000000000000000815260040161030290610b3d565b60405180910390fd5b7ffe0c8fdb7358cac52628b197c1f1419c599e01d9894a88eefab41a1a1839d291828260405161033c929190610a8d565b60405180910390a1505050565b600260149054906101000a900460ff166103a3576003543410156103a2576040517f08c379a000000000000000000000000000000000000000000000000000000000815260040161039990610b1d565b60405180910390fd5b5b600160009054906101000a900473ffffffffffffffffffffffffffffffffffffffff1673ffffffffffffffffffffffffffffffffffffffff1663731133e9838360016040518463ffffffff1660e01b815260040161040393929190610a28565b600060405180830381600087803b15801561041d57600080fd5b505af1158015610431573d6000803e3d6000fd5b505050507fbd0faddf87043dd749c1b9d4dca8a12589b8cb5e2106832111ce23f219b14367345a604051610466929190610b78565b60405180910390a15050565b61047a610610565b80600260006101000a81548173ffffffffffffffffffffffffffffffffffffffff021916908373ffffffffffffffffffffffffffffffffffffffff16021790555080600160006101000a81548173ffffffffffffffffffffffffffffffffffffffff021916908373ffffffffffffffffffffffffffffffffffffffff16021790555050565b600260149054906101000a900460ff1681565b61051a610610565b610524600061068e565b565b60008060009054906101000a900473ffffffffffffffffffffffffffffffffffffffff16905090565b610557610610565b8060038190555050565b610569610610565b80600260146101000a81548160ff02191690831515021790555050565b61058e610610565b600073ffffffffffffffffffffffffffffffffffffffff168173ffffffffffffffffffffffffffffffffffffffff1614156105fe576040517f08c379a00000000000000000000000000000000000000000000000000000000081526004016105f590610add565b60405180910390fd5b6106078161068e565b50565b60035481565b610618610752565b73ffffffffffffffffffffffffffffffffffffffff16610636610526565b73ffffffffffffffffffffffffffffffffffffffff161461068c576040517f08c379a000000000000000000000000000000000000000000000000000000000815260040161068390610afd565b60405180910390fd5b565b60008060009054906101000a900473ffffffffffffffffffffffffffffffffffffffff169050816000806101000a81548173ffffffffffffffffffffffffffffffffffffffff021916908373ffffffffffffffffffffffffffffffffffffffff1602179055508173ffffffffffffffffffffffffffffffffffffffff168173ffffffffffffffffffffffffffffffffffffffff167f8be0079c531659141344cd1fd0a4f28419497f9722a3daafe3b4186f6b6457e060405160405180910390a35050565b600033905090565b60008135905061076981610d7f565b92915050565b60008135905061077e81610d96565b92915050565b60008135905061079381610dad565b92915050565b6000813590506107a881610dc4565b92915050565b6000602082840312156107c057600080fd5b60006107ce8482850161075a565b91505092915050565b6000602082840312156107e957600080fd5b60006107f78482850161076f565b91505092915050565b6000806040838503121561081357600080fd5b60006108218582860161075a565b925050602061083285828601610799565b9150509250929050565b60006020828403121561084e57600080fd5b600061085c84828501610784565b91505092915050565b60006020828403121561087757600080fd5b600061088584828501610799565b91505092915050565b61089781610bd9565b82525050565b6108a681610bfd565b82525050565b60006108b782610ba1565b6108c18185610bac565b93506108d1818560208601610c45565b6108da81610c78565b840191505092915050565b6108ee81610c33565b82525050565b6000610901601a83610bc8565b915061090c82610c89565b602082019050919050565b6000610924602683610bc8565b915061092f82610cb2565b604082019050919050565b6000610947602083610bc8565b915061095282610d01565b602082019050919050565b600061096a601783610bc8565b915061097582610d2a565b602082019050919050565b600061098d600083610bac565b915061099882610d53565b600082019050919050565b60006109b0600083610bbd565b91506109bb82610d53565b600082019050919050565b60006109d3601183610bc8565b91506109de82610d56565b602082019050919050565b6109f281610c29565b82525050565b6000610a03826109a3565b9150819050919050565b6000602082019050610a22600083018461088e565b92915050565b6000608082019050610a3d600083018661088e565b610a4a60208301856109e9565b610a5760408301846108e5565b8181036060830152610a6881610980565b9050949350505050565b6000602082019050610a87600083018461089d565b92915050565b6000604082019050610aa2600083018561089d565b8181036020830152610ab481846108ac565b90509392505050565b60006020820190508181036000830152610ad6816108f4565b9050919050565b60006020820190508181036000830152610af681610917565b9050919050565b60006020820190508181036000830152610b168161093a565b9050919050565b60006020820190508181036000830152610b368161095d565b9050919050565b60006020820190508181036000830152610b56816109c6565b9050919050565b6000602082019050610b7260008301846109e9565b92915050565b6000604082019050610b8d60008301856109e9565b610b9a60208301846109e9565b9392505050565b600081519050919050565b600082825260208201905092915050565b600081905092915050565b600082825260208201905092915050565b6000610be482610c09565b9050919050565b6000610bf682610c09565b9050919050565b60008115159050919050565b600073ffffffffffffffffffffffffffffffffffffffff82169050919050565b6000819050919050565b6000610c3e82610c29565b9050919050565b60005b83811015610c63578082015181840152602081019050610c48565b83811115610c72576000848401525b50505050565b6000601f19601f8301169050919050565b7f4e6f20616d6f756e74206c65667420746f207769746864726177000000000000600082015250565b7f4f776e61626c653a206e6577206f776e657220697320746865207a65726f206160008201527f6464726573730000000000000000000000000000000000000000000000000000602082015250565b7f4f776e61626c653a2063616c6c6572206973206e6f7420746865206f776e6572600082015250565b7f4e65656420746f2073656e64206d6f7265204d41544943000000000000000000600082015250565b50565b7f5769746864726177616c206661696c6564000000000000000000000000000000600082015250565b610d8881610bd9565b8114610d9357600080fd5b50565b610d9f81610beb565b8114610daa57600080fd5b50565b610db681610bfd565b8114610dc157600080fd5b50565b610dcd81610c29565b8114610dd857600080fd5b5056fea2646970667358221220a56ad5e83fbf84108e0399487428bd3c177856247ba1e3dbf7ad185cb899d1c664736f6c63430008020033",
  "linkReferences": {},
  "deployedLinkReferences": {}
}