{
  "_format": "hh-sol-artifact-1",
  "contractName": "TopSevenPlayer",
  "sourceName": "contracts/TopSevenPlayer.sol",
  "abi": [
    {
      "inputs": [],
      "stateMutability": "nonpayable",
      "type": "constructor"
    },
    {
      "anonymous": false,
      "inputs": [
        {
          "indexed": false,
          "internalType": "address",
          "name": "previousAdmin",
          "type": "address"
        },
        {
          "indexed": false,
          "internalType": "address",
          "name": "newAdmin",
          "type": "address"
        }
      ],
      "name": "AdminChanged",
      "type": "event"
    },
    {
      "anonymous": false,
      "inputs": [
        {
          "indexed": true,
          "internalType": "address",
          "name": "owner",
          "type": "address"
        },
        {
          "indexed": true,
          "internalType": "address",
          "name": "approved",
          "type": "address"
        },
        {
          "indexed": true,
          "internalType": "uint256",
          "name": "tokenId",
          "type": "uint256"
        }
      ],
      "name": "Approval",
      "type": "event"
    },
    {
      "anonymous": false,
      "inputs": [
        {
          "indexed": true,
          "internalType": "address",
          "name": "owner",
          "type": "address"
        },
        {
          "indexed": true,
          "internalType": "address",
          "name": "operator",
          "type": "address"
        },
        {
          "indexed": false,
          "internalType": "bool",
          "name": "approved",
          "type": "bool"
        }
      ],
      "name": "ApprovalForAll",
      "type": "event"
    },
    {
      "anonymous": false,
      "inputs": [
        {
          "indexed": true,
          "internalType": "address",
          "name": "beacon",
          "type": "address"
        }
      ],
      "name": "BeaconUpgraded",
      "type": "event"
    },
    {
      "anonymous": false,
      "inputs": [
        {
          "indexed": false,
          "internalType": "uint8",
          "name": "version",
          "type": "uint8"
        }
      ],
      "name": "Initialized",
      "type": "event"
    },
    {
      "anonymous": false,
      "inputs": [
        {
          "indexed": false,
          "internalType": "uint256",
          "name": "amount",
          "type": "uint256"
        },
        {
          "indexed": false,
          "internalType": "uint256",
          "name": "gas",
          "type": "uint256"
        }
      ],
      "name": "Log",
      "type": "event"
    },
    {
      "anonymous": false,
      "inputs": [
        {
          "indexed": true,
          "internalType": "address",
          "name": "previousOwner",
          "type": "address"
        },
        {
          "indexed": true,
          "internalType": "address",
          "name": "newOwner",
          "type": "address"
        }
      ],
      "name": "OwnershipTransferred",
      "type": "event"
    },
    {
      "anonymous": false,
      "inputs": [
        {
          "indexed": false,
          "internalType": "bool",
          "name": "success",
          "type": "bool"
        },
        {
          "indexed": false,
          "internalType": "bytes",
          "name": "data",
          "type": "bytes"
        }
      ],
      "name": "ResultsFromCall",
      "type": "event"
    },
    {
      "anonymous": false,
      "inputs": [
        {
          "indexed": true,
          "internalType": "address",
          "name": "from",
          "type": "address"
        },
        {
          "indexed": true,
          "internalType": "address",
          "name": "to",
          "type": "address"
        },
        {
          "indexed": true,
          "internalType": "uint256",
          "name": "tokenId",
          "type": "uint256"
        }
      ],
      "name": "Transfer",
      "type": "event"
    },
    {
      "anonymous": false,
      "inputs": [
        {
          "indexed": true,
          "internalType": "address",
          "name": "implementation",
          "type": "address"
        }
      ],
      "name": "Upgraded",
      "type": "event"
    },
    {
      "inputs": [],
      "name": "BASE_PRICE",
      "outputs": [
        {
          "internalType": "uint256",
          "name": "",
          "type": "uint256"
        }
      ],
      "stateMutability": "view",
      "type": "function"
    },
    {
      "inputs": [],
      "name": "IS_FREE_MINT",
      "outputs": [
        {
          "internalType": "bool",
          "name": "",
          "type": "bool"
        }
      ],
      "stateMutability": "view",
      "type": "function"
    },
    {
      "inputs": [],
      "name": "LEGEND_BASE_PRICE",
      "outputs": [
        {
          "internalType": "uint256",
          "name": "",
          "type": "uint256"
        }
      ],
      "stateMutability": "view",
      "type": "function"
    },
    {
      "inputs": [],
      "name": "MIN_LEGEND_ID",
      "outputs": [
        {
          "internalType": "uint256",
          "name": "",
          "type": "uint256"
        }
      ],
      "stateMutability": "view",
      "type": "function"
    },
    {
      "inputs": [
        {
          "internalType": "address",
          "name": "to",
          "type": "address"
        },
        {
          "internalType": "uint256",
          "name": "tokenId",
          "type": "uint256"
        }
      ],
      "name": "approve",
      "outputs": [],
      "stateMutability": "nonpayable",
      "type": "function"
    },
    {
      "inputs": [
        {
          "internalType": "address",
          "name": "owner",
          "type": "address"
        }
      ],
      "name": "balanceOf",
      "outputs": [
        {
          "internalType": "uint256",
          "name": "",
          "type": "uint256"
        }
      ],
      "stateMutability": "view",
      "type": "function"
    },
    {
      "inputs": [
        {
          "internalType": "uint256",
          "name": "tokenId",
          "type": "uint256"
        }
      ],
      "name": "getApproved",
      "outputs": [
        {
          "internalType": "address",
          "name": "",
          "type": "address"
        }
      ],
      "stateMutability": "view",
      "type": "function"
    },
    {
      "inputs": [],
      "name": "getMintedIds",
      "outputs": [
        {
          "internalType": "uint256[]",
          "name": "",
          "type": "uint256[]"
        }
      ],
      "stateMutability": "view",
      "type": "function"
    },
    {
      "inputs": [],
      "name": "initialize",
      "outputs": [],
      "stateMutability": "nonpayable",
      "type": "function"
    },
    {
      "inputs": [
        {
          "internalType": "address",
          "name": "owner",
          "type": "address"
        },
        {
          "internalType": "address",
          "name": "operator",
          "type": "address"
        }
      ],
      "name": "isApprovedForAll",
      "outputs": [
        {
          "internalType": "bool",
          "name": "",
          "type": "bool"
        }
      ],
      "stateMutability": "view",
      "type": "function"
    },
    {
      "inputs": [],
      "name": "name",
      "outputs": [
        {
          "internalType": "string",
          "name": "",
          "type": "string"
        }
      ],
      "stateMutability": "view",
      "type": "function"
    },
    {
      "inputs": [],
      "name": "owner",
      "outputs": [
        {
          "internalType": "address",
          "name": "",
          "type": "address"
        }
      ],
      "stateMutability": "view",
      "type": "function"
    },
    {
      "inputs": [
        {
          "internalType": "uint256",
          "name": "tokenId",
          "type": "uint256"
        }
      ],
      "name": "ownerOf",
      "outputs": [
        {
          "internalType": "address",
          "name": "",
          "type": "address"
        }
      ],
      "stateMutability": "view",
      "type": "function"
    },
    {
      "inputs": [],
      "name": "proxiableUUID",
      "outputs": [
        {
          "internalType": "bytes32",
          "name": "",
          "type": "bytes32"
        }
      ],
      "stateMutability": "view",
      "type": "function"
    },
    {
      "inputs": [],
      "name": "renounceOwnership",
      "outputs": [],
      "stateMutability": "nonpayable",
      "type": "function"
    },
    {
      "inputs": [
        {
          "internalType": "address",
          "name": "to",
          "type": "address"
        },
        {
          "internalType": "uint256",
          "name": "tokenId",
          "type": "uint256"
        }
      ],
      "name": "safeMint",
      "outputs": [],
      "stateMutability": "payable",
      "type": "function"
    },
    {
      "inputs": [
        {
          "internalType": "address",
          "name": "from",
          "type": "address"
        },
        {
          "internalType": "address",
          "name": "to",
          "type": "address"
        },
        {
          "internalType": "uint256",
          "name": "tokenId",
          "type": "uint256"
        }
      ],
      "name": "safeTransferFrom",
      "outputs": [],
      "stateMutability": "nonpayable",
      "type": "function"
    },
    {
      "inputs": [
        {
          "internalType": "address",
          "name": "from",
          "type": "address"
        },
        {
          "internalType": "address",
          "name": "to",
          "type": "address"
        },
        {
          "internalType": "uint256",
          "name": "tokenId",
          "type": "uint256"
        },
        {
          "internalType": "bytes",
          "name": "data",
          "type": "bytes"
        }
      ],
      "name": "safeTransferFrom",
      "outputs": [],
      "stateMutability": "nonpayable",
      "type": "function"
    },
    {
      "inputs": [
        {
          "internalType": "address",
          "name": "operator",
          "type": "address"
        },
        {
          "internalType": "bool",
          "name": "approved",
          "type": "bool"
        }
      ],
      "name": "setApprovalForAll",
      "outputs": [],
      "stateMutability": "nonpayable",
      "type": "function"
    },
    {
      "inputs": [
        {
          "internalType": "uint256",
          "name": "_basePrice",
          "type": "uint256"
        }
      ],
      "name": "setBasePrice",
      "outputs": [],
      "stateMutability": "nonpayable",
      "type": "function"
    },
    {
      "inputs": [
        {
          "internalType": "bool",
          "name": "_isFreeMint",
          "type": "bool"
        }
      ],
      "name": "setIsFreeMint",
      "outputs": [],
      "stateMutability": "nonpayable",
      "type": "function"
    },
    {
      "inputs": [
        {
          "internalType": "uint256",
          "name": "_legendBasePrice",
          "type": "uint256"
        }
      ],
      "name": "setLegendBasePrice",
      "outputs": [],
      "stateMutability": "nonpayable",
      "type": "function"
    },
    {
      "inputs": [
        {
          "internalType": "uint256",
          "name": "_minLegendId",
          "type": "uint256"
        }
      ],
      "name": "setMinLegendId",
      "outputs": [],
      "stateMutability": "nonpayable",
      "type": "function"
    },
    {
      "inputs": [
        {
          "internalType": "bytes4",
          "name": "interfaceId",
          "type": "bytes4"
        }
      ],
      "name": "supportsInterface",
      "outputs": [
        {
          "internalType": "bool",
          "name": "",
          "type": "bool"
        }
      ],
      "stateMutability": "view",
      "type": "function"
    },
    {
      "inputs": [],
      "name": "symbol",
      "outputs": [
        {
          "internalType": "string",
          "name": "",
          "type": "string"
        }
      ],
      "stateMutability": "view",
      "type": "function"
    },
    {
      "inputs": [
        {
          "internalType": "uint256",
          "name": "index",
          "type": "uint256"
        }
      ],
      "name": "tokenByIndex",
      "outputs": [
        {
          "internalType": "uint256",
          "name": "",
          "type": "uint256"
        }
      ],
      "stateMutability": "view",
      "type": "function"
    },
    {
      "inputs": [
        {
          "internalType": "address",
          "name": "owner",
          "type": "address"
        },
        {
          "internalType": "uint256",
          "name": "index",
          "type": "uint256"
        }
      ],
      "name": "tokenOfOwnerByIndex",
      "outputs": [
        {
          "internalType": "uint256",
          "name": "",
          "type": "uint256"
        }
      ],
      "stateMutability": "view",
      "type": "function"
    },
    {
      "inputs": [
        {
          "internalType": "uint256",
          "name": "tokenId",
          "type": "uint256"
        }
      ],
      "name": "tokenURI",
      "outputs": [
        {
          "internalType": "string",
          "name": "",
          "type": "string"
        }
      ],
      "stateMutability": "view",
      "type": "function"
    },
    {
      "inputs": [],
      "name": "totalSupply",
      "outputs": [
        {
          "internalType": "uint256",
          "name": "",
          "type": "uint256"
        }
      ],
      "stateMutability": "view",
      "type": "function"
    },
    {
      "inputs": [
        {
          "internalType": "address",
          "name": "from",
          "type": "address"
        },
        {
          "internalType": "address",
          "name": "to",
          "type": "address"
        },
        {
          "internalType": "uint256",
          "name": "tokenId",
          "type": "uint256"
        }
      ],
      "name": "transferFrom",
      "outputs": [],
      "stateMutability": "nonpayable",
      "type": "function"
    },
    {
      "inputs": [
        {
          "internalType": "address",
          "name": "newOwner",
          "type": "address"
        }
      ],
      "name": "transferOwnership",
      "outputs": [],
      "stateMutability": "nonpayable",
      "type": "function"
    },
    {
      "inputs": [
        {
          "internalType": "address",
          "name": "newImplementation",
          "type": "address"
        }
      ],
      "name": "upgradeTo",
      "outputs": [],
      "stateMutability": "nonpayable",
      "type": "function"
    },
    {
      "inputs": [
        {
          "internalType": "address",
          "name": "newImplementation",
          "type": "address"
        },
        {
          "internalType": "bytes",
          "name": "data",
          "type": "bytes"
        }
      ],
      "name": "upgradeToAndCall",
      "outputs": [],
      "stateMutability": "payable",
      "type": "function"
    },
    {
      "inputs": [],
      "name": "withdraw",
      "outputs": [],
      "stateMutability": "nonpayable",
      "type": "function"
    }
  ],
  "bytecode": "0x60a06040523073ffffffffffffffffffffffffffffffffffffffff1660809073ffffffffffffffffffffffffffffffffffffffff1660601b8152503480156200004757600080fd5b50620000586200005e60201b60201c565b62000209565b600060019054906101000a900460ff1615620000b1576040517f08c379a0000000000000000000000000000000000000000000000000000000008152600401620000a8906200015d565b60405180910390fd5b60ff801660008054906101000a900460ff1660ff161015620001235760ff6000806101000a81548160ff021916908360ff1602179055507f7f26b83ff96e1f2b6a682f133852f6798a09c465da95921460cefb384740249860ff6040516200011a91906200017f565b60405180910390a15b565b6000620001346027836200019c565b91506200014182620001ba565b604082019050919050565b6200015781620001ad565b82525050565b60006020820190508181036000830152620001788162000125565b9050919050565b60006020820190506200019660008301846200014c565b92915050565b600082825260208201905092915050565b600060ff82169050919050565b7f496e697469616c697a61626c653a20636f6e747261637420697320696e69746960008201527f616c697a696e6700000000000000000000000000000000000000000000000000602082015250565b60805160601c614e536200024460003960008181610aea01528181610b7901528181610df501528181610e840152610fcb0152614e536000f3fe6080604052600436106101f95760003560e01c806370a082311161010d578063b25e92e4116100a0578063e985e9c51161006f578063e985e9c5146106f1578063ef5d87d71461072e578063f2fde38b14610757578063f86325ed14610780578063fe22f97d146107ab576101f9565b8063b25e92e414610637578063b88d4fde14610662578063c87b56dd1461068b578063de4b3262146106c8576101f9565b806395d89b41116100dc57806395d89b411461059c578063a1448194146105c7578063a22cb465146105e3578063ad8a06e61461060c576101f9565b806370a0823114610506578063715018a6146105435780638129fc1c1461055a5780638da5cb5b14610571576101f9565b80633ccfd60b1161019057806352d1902d1161015f57806352d1902d1461041f57806362ac9c961461044a5780636352211e1461047557806366a9499c146104b2578063693c6062146104db576101f9565b80633ccfd60b1461038657806342842e0e1461039d5780634f1ef286146103c65780634f6ccce7146103e2576101f9565b806318160ddd116101cc57806318160ddd146102cc57806323b872dd146102f75780632f745c59146103205780633659cfe61461035d576101f9565b806301ffc9a7146101fe57806306fdde031461023b578063081812fc14610266578063095ea7b3146102a3575b600080fd5b34801561020a57600080fd5b50610225600480360381019061022091906136be565b6107d4565b6040516102329190613dad565b60405180910390f35b34801561024757600080fd5b506102506107e6565b60405161025d9190613e2e565b60405180910390f35b34801561027257600080fd5b5061028d60048036038101906102889190613710565b610878565b60405161029a9190613d24565b60405180910390f35b3480156102af57600080fd5b506102ca60048036038101906102c59190613630565b6108be565b005b3480156102d857600080fd5b506102e16109d6565b6040516102ee91906141d0565b60405180910390f35b34801561030357600080fd5b5061031e600480360381019061031991906134d6565b6109e3565b005b34801561032c57600080fd5b5061034760048036038101906103429190613630565b610a43565b60405161035491906141d0565b60405180910390f35b34801561036957600080fd5b50610384600480360381019061037f9190613471565b610ae8565b005b34801561039257600080fd5b5061039b610c97565b005b3480156103a957600080fd5b506103c460048036038101906103bf91906134d6565b610dd3565b005b6103e060048036038101906103db91906135dc565b610df3565b005b3480156103ee57600080fd5b5061040960048036038101906104049190613710565b610f30565b60405161041691906141d0565b60405180910390f35b34801561042b57600080fd5b50610434610fc7565b6040516104419190613df8565b60405180910390f35b34801561045657600080fd5b5061045f611080565b60405161046c9190613dad565b60405180910390f35b34801561048157600080fd5b5061049c60048036038101906104979190613710565b611094565b6040516104a99190613d24565b60405180910390f35b3480156104be57600080fd5b506104d960048036038101906104d49190613710565b611146565b005b3480156104e757600080fd5b506104f0611159565b6040516104fd9190613d8b565b60405180910390f35b34801561051257600080fd5b5061052d60048036038101906105289190613471565b6111b2565b60405161053a91906141d0565b60405180910390f35b34801561054f57600080fd5b5061055861126a565b005b34801561056657600080fd5b5061056f61127e565b005b34801561057d57600080fd5b5061058661147e565b6040516105939190613d24565b60405180910390f35b3480156105a857600080fd5b506105b16114a8565b6040516105be9190613e2e565b60405180910390f35b6105e160048036038101906105dc9190613630565b61153a565b005b3480156105ef57600080fd5b5061060a600480360381019061060591906135a0565b61166d565b005b34801561061857600080fd5b50610621611683565b60405161062e91906141d0565b60405180910390f35b34801561064357600080fd5b5061064c61168a565b60405161065991906141d0565b60405180910390f35b34801561066e57600080fd5b5061068960048036038101906106849190613525565b611691565b005b34801561069757600080fd5b506106b260048036038101906106ad9190613710565b6116f3565b6040516106bf9190613e2e565b60405180910390f35b3480156106d457600080fd5b506106ef60048036038101906106ea9190613710565b61175b565b005b3480156106fd57600080fd5b506107186004803603810190610713919061349a565b61176e565b6040516107259190613dad565b60405180910390f35b34801561073a57600080fd5b506107556004803603810190610750919061366c565b611802565b005b34801561076357600080fd5b5061077e60048036038101906107799190613471565b611828565b005b34801561078c57600080fd5b506107956118ac565b6040516107a291906141d0565b60405180910390f35b3480156107b757600080fd5b506107d260048036038101906107cd9190613710565b6118b3565b005b60006107df826118c6565b9050919050565b6060606580546107f590614462565b80601f016020809104026020016040519081016040528092919081815260200182805461082190614462565b801561086e5780601f106108435761010080835404028352916020019161086e565b820191906000526020600020905b81548152906001019060200180831161085157829003601f168201915b5050505050905090565b600061088382611940565b6069600083815260200190815260200160002060009054906101000a900473ffffffffffffffffffffffffffffffffffffffff169050919050565b60006108c982611094565b90508073ffffffffffffffffffffffffffffffffffffffff168373ffffffffffffffffffffffffffffffffffffffff16141561093a576040517f08c379a0000000000000000000000000000000000000000000000000000000008152600401610931906140f0565b60405180910390fd5b8073ffffffffffffffffffffffffffffffffffffffff1661095961198b565b73ffffffffffffffffffffffffffffffffffffffff16148061098857506109878161098261198b565b61176e565b5b6109c7576040517f08c379a00000000000000000000000000000000000000000000000000000000081526004016109be90614030565b60405180910390fd5b6109d18383611993565b505050565b6000609980549050905090565b6109f46109ee61198b565b82611a4c565b610a33576040517f08c379a0000000000000000000000000000000000000000000000000000000008152600401610a2a90614190565b60405180910390fd5b610a3e838383611ae1565b505050565b6000610a4e836111b2565b8210610a8f576040517f08c379a0000000000000000000000000000000000000000000000000000000008152600401610a8690613e50565b60405180910390fd5b609760008473ffffffffffffffffffffffffffffffffffffffff1673ffffffffffffffffffffffffffffffffffffffff168152602001908152602001600020600083815260200190815260200160002054905092915050565b7f000000000000000000000000000000000000000000000000000000000000000073ffffffffffffffffffffffffffffffffffffffff163073ffffffffffffffffffffffffffffffffffffffff161415610b77576040517f08c379a0000000000000000000000000000000000000000000000000000000008152600401610b6e90613f10565b60405180910390fd5b7f000000000000000000000000000000000000000000000000000000000000000073ffffffffffffffffffffffffffffffffffffffff16610bb6611d48565b73ffffffffffffffffffffffffffffffffffffffff1614610c0c576040517f08c379a0000000000000000000000000000000000000000000000000000000008152600401610c0390613f90565b60405180910390fd5b610c1581611d9f565b610c9481600067ffffffffffffffff811115610c5a577f4e487b7100000000000000000000000000000000000000000000000000000000600052604160045260246000fd5b6040519080825280601f01601f191660200182016040528015610c8c5781602001600182028036833780820191505090505b506000611daa565b50565b610c9f611f27565b600047905060008111610ce7576040517f08c379a0000000000000000000000000000000000000000000000000000000008152600401610cde90613e90565b60405180910390fd5b6000803373ffffffffffffffffffffffffffffffffffffffff1683604051610d0e90613d0f565b60006040518083038185875af1925050503d8060008114610d4b576040519150601f19603f3d011682016040523d82523d6000602084013e610d50565b606091505b509150915081610d95576040517f08c379a0000000000000000000000000000000000000000000000000000000008152600401610d8c906141b0565b60405180910390fd5b7ffe0c8fdb7358cac52628b197c1f1419c599e01d9894a88eefab41a1a1839d2918282604051610dc6929190613dc8565b60405180910390a1505050565b610dee83838360405180602001604052806000815250611691565b505050565b7f000000000000000000000000000000000000000000000000000000000000000073ffffffffffffffffffffffffffffffffffffffff163073ffffffffffffffffffffffffffffffffffffffff161415610e82576040517f08c379a0000000000000000000000000000000000000000000000000000000008152600401610e7990613f10565b60405180910390fd5b7f000000000000000000000000000000000000000000000000000000000000000073ffffffffffffffffffffffffffffffffffffffff16610ec1611d48565b73ffffffffffffffffffffffffffffffffffffffff1614610f17576040517f08c379a0000000000000000000000000000000000000000000000000000000008152600401610f0e90613f90565b60405180910390fd5b610f2082611d9f565b610f2c82826001611daa565b5050565b6000610f3a6109d6565b8210610f7b576040517f08c379a0000000000000000000000000000000000000000000000000000000008152600401610f7290614150565b60405180910390fd5b60998281548110610fb5577f4e487b7100000000000000000000000000000000000000000000000000000000600052603260045260246000fd5b90600052602060002001549050919050565b60007f000000000000000000000000000000000000000000000000000000000000000073ffffffffffffffffffffffffffffffffffffffff163073ffffffffffffffffffffffffffffffffffffffff1614611057576040517f08c379a000000000000000000000000000000000000000000000000000000000815260040161104e90613fb0565b60405180910390fd5b7f360894a13ba1a3210667c828492db98dca3e2076cc3735a920a3ca505d382bbc60001b905090565b61015f60009054906101000a900460ff1681565b6000806067600084815260200190815260200160002060009054906101000a900473ffffffffffffffffffffffffffffffffffffffff169050600073ffffffffffffffffffffffffffffffffffffffff168173ffffffffffffffffffffffffffffffffffffffff16141561113d576040517f08c379a0000000000000000000000000000000000000000000000000000000008152600401611134906140d0565b60405180910390fd5b80915050919050565b61114e611f27565b806101618190555050565b60606101638054806020026020016040519081016040528092919081815260200182805480156111a857602002820191906000526020600020905b815481526020019060010190808311611194575b5050505050905090565b60008073ffffffffffffffffffffffffffffffffffffffff168273ffffffffffffffffffffffffffffffffffffffff161415611223576040517f08c379a000000000000000000000000000000000000000000000000000000000815260040161121a90613fd0565b60405180910390fd5b606860008373ffffffffffffffffffffffffffffffffffffffff1673ffffffffffffffffffffffffffffffffffffffff168152602001908152602001600020549050919050565b611272611f27565b61127c6000611fa5565b565b60008060019054906101000a900460ff161590508080156112af5750600160008054906101000a900460ff1660ff16105b806112dc57506112be3061206b565b1580156112db5750600160008054906101000a900460ff1660ff16145b5b61131b576040517f08c379a000000000000000000000000000000000000000000000000000000000815260040161131290614010565b60405180910390fd5b60016000806101000a81548160ff021916908360ff1602179055508015611358576001600060016101000a81548160ff0219169083151502179055505b6113cc6040518060400160405280600e81526020017f546f70536576656e506c617965720000000000000000000000000000000000008152506040518060400160405280600381526020017f545350000000000000000000000000000000000000000000000000000000000081525061208e565b6113d46120eb565b6113dc612144565b600161015f60006101000a81548160ff0219169083151502179055506706f05b59d3b2000061016081905550670de0b6b3a7640000610161819055506103e861016281905550801561147b5760008060016101000a81548160ff0219169083151502179055507f7f26b83ff96e1f2b6a682f133852f6798a09c465da95921460cefb384740249860016040516114729190613e13565b60405180910390a15b50565b600060c960009054906101000a900473ffffffffffffffffffffffffffffffffffffffff16905090565b6060606680546114b790614462565b80601f01602080910402602001604051908101604052809291908181526020018280546114e390614462565b80156115305780601f1061150557610100808354040283529160200191611530565b820191906000526020600020905b81548152906001019060200180831161151357829003601f168201915b5050505050905090565b61154381612195565b15611583576040517f08c379a000000000000000000000000000000000000000000000000000000000815260040161157a90613f70565b60405180910390fd5b61015f60009054906101000a900460ff16611635576101625481106115ed57610161543410156115e8576040517f08c379a00000000000000000000000000000000000000000000000000000000081526004016115df90614130565b60405180910390fd5b611634565b61016054341015611633576040517f08c379a000000000000000000000000000000000000000000000000000000000815260040161162a90614130565b60405180910390fd5b5b5b61163f8282612201565b6101638190806001815401808255809150506001900390600052602060002001600090919091909150555050565b61167f61167861198b565b838361221f565b5050565b6101625481565b6101615481565b6116a261169c61198b565b83611a4c565b6116e1576040517f08c379a00000000000000000000000000000000000000000000000000000000081526004016116d890614190565b60405180910390fd5b6116ed8484848461238c565b50505050565b60606116fe82611940565b60006117086123e8565b905060008151116117285760405180602001604052806000815250611753565b8061173284612408565b604051602001611743929190613ceb565b6040516020818303038152906040525b915050919050565b611763611f27565b806101608190555050565b6000606a60008473ffffffffffffffffffffffffffffffffffffffff1673ffffffffffffffffffffffffffffffffffffffff16815260200190815260200160002060008373ffffffffffffffffffffffffffffffffffffffff1673ffffffffffffffffffffffffffffffffffffffff16815260200190815260200160002060009054906101000a900460ff16905092915050565b61180a611f27565b8061015f60006101000a81548160ff02191690831515021790555050565b611830611f27565b600073ffffffffffffffffffffffffffffffffffffffff168173ffffffffffffffffffffffffffffffffffffffff1614156118a0576040517f08c379a000000000000000000000000000000000000000000000000000000000815260040161189790613eb0565b60405180910390fd5b6118a981611fa5565b50565b6101605481565b6118bb611f27565b806101628190555050565b60007f780e9d63000000000000000000000000000000000000000000000000000000007bffffffffffffffffffffffffffffffffffffffffffffffffffffffff1916827bffffffffffffffffffffffffffffffffffffffffffffffffffffffff191614806119395750611938826125b5565b5b9050919050565b61194981612195565b611988576040517f08c379a000000000000000000000000000000000000000000000000000000000815260040161197f906140d0565b60405180910390fd5b50565b600033905090565b816069600083815260200190815260200160002060006101000a81548173ffffffffffffffffffffffffffffffffffffffff021916908373ffffffffffffffffffffffffffffffffffffffff160217905550808273ffffffffffffffffffffffffffffffffffffffff16611a0683611094565b73ffffffffffffffffffffffffffffffffffffffff167f8c5be1e5ebec7d5bd14f71427d1e84f3dd0314c0f7b2291e5b200ac8c7c3b92560405160405180910390a45050565b600080611a5883611094565b90508073ffffffffffffffffffffffffffffffffffffffff168473ffffffffffffffffffffffffffffffffffffffff161480611a9a5750611a99818561176e565b5b80611ad857508373ffffffffffffffffffffffffffffffffffffffff16611ac084610878565b73ffffffffffffffffffffffffffffffffffffffff16145b91505092915050565b8273ffffffffffffffffffffffffffffffffffffffff16611b0182611094565b73ffffffffffffffffffffffffffffffffffffffff1614611b57576040517f08c379a0000000000000000000000000000000000000000000000000000000008152600401611b4e90613ed0565b60405180910390fd5b600073ffffffffffffffffffffffffffffffffffffffff168273ffffffffffffffffffffffffffffffffffffffff161415611bc7576040517f08c379a0000000000000000000000000000000000000000000000000000000008152600401611bbe90613f30565b60405180910390fd5b611bd2838383612697565b611bdd600082611993565b6001606860008573ffffffffffffffffffffffffffffffffffffffff1673ffffffffffffffffffffffffffffffffffffffff1681526020019081526020016000206000828254611c2d919061434f565b925050819055506001606860008473ffffffffffffffffffffffffffffffffffffffff1673ffffffffffffffffffffffffffffffffffffffff1681526020019081526020016000206000828254611c8491906142c8565b92505081905550816067600083815260200190815260200160002060006101000a81548173ffffffffffffffffffffffffffffffffffffffff021916908373ffffffffffffffffffffffffffffffffffffffff160217905550808273ffffffffffffffffffffffffffffffffffffffff168473ffffffffffffffffffffffffffffffffffffffff167fddf252ad1be2c89b69c2b068fc378daa952ba7f163c4a11628f55a4df523b3ef60405160405180910390a4611d438383836126a7565b505050565b6000611d767f360894a13ba1a3210667c828492db98dca3e2076cc3735a920a3ca505d382bbc60001b6126ac565b60000160009054906101000a900473ffffffffffffffffffffffffffffffffffffffff16905090565b611da7611f27565b50565b611dd67f4910fdfa16fed3260ed0e7147f7cc6da11a60208b5b9406d12a635614ffd914360001b6126b6565b60000160009054906101000a900460ff1615611dfa57611df5836126c0565b611f22565b8273ffffffffffffffffffffffffffffffffffffffff166352d1902d6040518163ffffffff1660e01b815260040160206040518083038186803b158015611e4057600080fd5b505afa925050508015611e7157506040513d601f19601f82011682018060405250810190611e6e9190613695565b60015b611eb0576040517f08c379a0000000000000000000000000000000000000000000000000000000008152600401611ea790614070565b60405180910390fd5b7f360894a13ba1a3210667c828492db98dca3e2076cc3735a920a3ca505d382bbc60001b8114611f15576040517f08c379a0000000000000000000000000000000000000000000000000000000008152600401611f0c90613ff0565b60405180910390fd5b50611f21838383612779565b5b505050565b611f2f61198b565b73ffffffffffffffffffffffffffffffffffffffff16611f4d61147e565b73ffffffffffffffffffffffffffffffffffffffff1614611fa3576040517f08c379a0000000000000000000000000000000000000000000000000000000008152600401611f9a906140b0565b60405180910390fd5b565b600060c960009054906101000a900473ffffffffffffffffffffffffffffffffffffffff1690508160c960006101000a81548173ffffffffffffffffffffffffffffffffffffffff021916908373ffffffffffffffffffffffffffffffffffffffff1602179055508173ffffffffffffffffffffffffffffffffffffffff168173ffffffffffffffffffffffffffffffffffffffff167f8be0079c531659141344cd1fd0a4f28419497f9722a3daafe3b4186f6b6457e060405160405180910390a35050565b6000808273ffffffffffffffffffffffffffffffffffffffff163b119050919050565b600060019054906101000a900460ff166120dd576040517f08c379a00000000000000000000000000000000000000000000000000000000081526004016120d490614170565b60405180910390fd5b6120e782826127a5565b5050565b600060019054906101000a900460ff1661213a576040517f08c379a000000000000000000000000000000000000000000000000000000000815260040161213190614170565b60405180910390fd5b612142612826565b565b600060019054906101000a900460ff16612193576040517f08c379a000000000000000000000000000000000000000000000000000000000815260040161218a90614170565b60405180910390fd5b565b60008073ffffffffffffffffffffffffffffffffffffffff166067600084815260200190815260200160002060009054906101000a900473ffffffffffffffffffffffffffffffffffffffff1673ffffffffffffffffffffffffffffffffffffffff1614159050919050565b61221b828260405180602001604052806000815250612887565b5050565b8173ffffffffffffffffffffffffffffffffffffffff168373ffffffffffffffffffffffffffffffffffffffff16141561228e576040517f08c379a000000000000000000000000000000000000000000000000000000000815260040161228590613f50565b60405180910390fd5b80606a60008573ffffffffffffffffffffffffffffffffffffffff1673ffffffffffffffffffffffffffffffffffffffff16815260200190815260200160002060008473ffffffffffffffffffffffffffffffffffffffff1673ffffffffffffffffffffffffffffffffffffffff16815260200190815260200160002060006101000a81548160ff0219169083151502179055508173ffffffffffffffffffffffffffffffffffffffff168373ffffffffffffffffffffffffffffffffffffffff167f17307eab39ab6107e8899845ad3d59bd9653f200f220920489ca2b5937696c318360405161237f9190613dad565b60405180910390a3505050565b612397848484611ae1565b6123a3848484846128e2565b6123e2576040517f08c379a00000000000000000000000000000000000000000000000000000000081526004016123d990613e70565b60405180910390fd5b50505050565b6060604051806060016040528060268152602001614df860269139905090565b60606000821415612450576040518060400160405280600181526020017f300000000000000000000000000000000000000000000000000000000000000081525090506125b0565b600082905060005b6000821461248257808061246b906144c5565b915050600a8261247b919061431e565b9150612458565b60008167ffffffffffffffff8111156124c4577f4e487b7100000000000000000000000000000000000000000000000000000000600052604160045260246000fd5b6040519080825280601f01601f1916602001820160405280156124f65781602001600182028036833780820191505090505b5090505b600085146125a95760018261250f919061434f565b9150600a8561251e919061450e565b603061252a91906142c8565b60f81b818381518110612566577f4e487b7100000000000000000000000000000000000000000000000000000000600052603260045260246000fd5b60200101907effffffffffffffffffffffffffffffffffffffffffffffffffffffffffffff1916908160001a905350600a856125a2919061431e565b94506124fa565b8093505050505b919050565b60007f80ac58cd000000000000000000000000000000000000000000000000000000007bffffffffffffffffffffffffffffffffffffffffffffffffffffffff1916827bffffffffffffffffffffffffffffffffffffffffffffffffffffffff1916148061268057507f5b5e139f000000000000000000000000000000000000000000000000000000007bffffffffffffffffffffffffffffffffffffffffffffffffffffffff1916827bffffffffffffffffffffffffffffffffffffffffffffffffffffffff1916145b80612690575061268f82612a79565b5b9050919050565b6126a2838383612ae3565b505050565b505050565b6000819050919050565b6000819050919050565b6126c98161206b565b612708576040517f08c379a00000000000000000000000000000000000000000000000000000000081526004016126ff90614090565b60405180910390fd5b806127357f360894a13ba1a3210667c828492db98dca3e2076cc3735a920a3ca505d382bbc60001b6126ac565b60000160006101000a81548173ffffffffffffffffffffffffffffffffffffffff021916908373ffffffffffffffffffffffffffffffffffffffff16021790555050565b61278283612bf7565b60008251118061278f5750805b156127a05761279e8383612c46565b505b505050565b600060019054906101000a900460ff166127f4576040517f08c379a00000000000000000000000000000000000000000000000000000000081526004016127eb90614170565b60405180910390fd5b816065908051906020019061280a9291906132e8565b5080606690805190602001906128219291906132e8565b505050565b600060019054906101000a900460ff16612875576040517f08c379a000000000000000000000000000000000000000000000000000000000815260040161286c90614170565b60405180910390fd5b61288561288061198b565b611fa5565b565b6128918383612d2a565b61289e60008484846128e2565b6128dd576040517f08c379a00000000000000000000000000000000000000000000000000000000081526004016128d490613e70565b60405180910390fd5b505050565b60006129038473ffffffffffffffffffffffffffffffffffffffff1661206b565b15612a6c578373ffffffffffffffffffffffffffffffffffffffff1663150b7a0261292c61198b565b8786866040518563ffffffff1660e01b815260040161294e9493929190613d3f565b602060405180830381600087803b15801561296857600080fd5b505af192505050801561299957506040513d601f19601f8201168201806040525081019061299691906136e7565b60015b612a1c573d80600081146129c9576040519150601f19603f3d011682016040523d82523d6000602084013e6129ce565b606091505b50600081511415612a14576040517f08c379a0000000000000000000000000000000000000000000000000000000008152600401612a0b90613e70565b60405180910390fd5b805181602001fd5b63150b7a0260e01b7bffffffffffffffffffffffffffffffffffffffffffffffffffffffff1916817bffffffffffffffffffffffffffffffffffffffffffffffffffffffff191614915050612a71565b600190505b949350505050565b60007f01ffc9a7000000000000000000000000000000000000000000000000000000007bffffffffffffffffffffffffffffffffffffffffffffffffffffffff1916827bffffffffffffffffffffffffffffffffffffffffffffffffffffffff1916149050919050565b612aee838383612f04565b600073ffffffffffffffffffffffffffffffffffffffff168373ffffffffffffffffffffffffffffffffffffffff161415612b3157612b2c81612f09565b612b70565b8173ffffffffffffffffffffffffffffffffffffffff168373ffffffffffffffffffffffffffffffffffffffff1614612b6f57612b6e8382612f52565b5b5b600073ffffffffffffffffffffffffffffffffffffffff168273ffffffffffffffffffffffffffffffffffffffff161415612bb357612bae816130bf565b612bf2565b8273ffffffffffffffffffffffffffffffffffffffff168273ffffffffffffffffffffffffffffffffffffffff1614612bf157612bf08282613202565b5b5b505050565b612c00816126c0565b8073ffffffffffffffffffffffffffffffffffffffff167fbc7cd75a20ee27fd9adebab32041f755214dbc6bffa90cc0225b39da2e5c2d3b60405160405180910390a250565b6060612c518361206b565b612c90576040517f08c379a0000000000000000000000000000000000000000000000000000000008152600401612c8790614110565b60405180910390fd5b6000808473ffffffffffffffffffffffffffffffffffffffff1684604051612cb89190613cd4565b600060405180830381855af49150503d8060008114612cf3576040519150601f19603f3d011682016040523d82523d6000602084013e612cf8565b606091505b5091509150612d208282604051806060016040528060278152602001614dd160279139613281565b9250505092915050565b600073ffffffffffffffffffffffffffffffffffffffff168273ffffffffffffffffffffffffffffffffffffffff161415612d9a576040517f08c379a0000000000000000000000000000000000000000000000000000000008152600401612d9190614050565b60405180910390fd5b612da381612195565b15612de3576040517f08c379a0000000000000000000000000000000000000000000000000000000008152600401612dda90613ef0565b60405180910390fd5b612def60008383612697565b6001606860008473ffffffffffffffffffffffffffffffffffffffff1673ffffffffffffffffffffffffffffffffffffffff1681526020019081526020016000206000828254612e3f91906142c8565b92505081905550816067600083815260200190815260200160002060006101000a81548173ffffffffffffffffffffffffffffffffffffffff021916908373ffffffffffffffffffffffffffffffffffffffff160217905550808273ffffffffffffffffffffffffffffffffffffffff16600073ffffffffffffffffffffffffffffffffffffffff167fddf252ad1be2c89b69c2b068fc378daa952ba7f163c4a11628f55a4df523b3ef60405160405180910390a4612f00600083836126a7565b5050565b505050565b609980549050609a600083815260200190815260200160002081905550609981908060018154018082558091505060019003906000526020600020016000909190919091505550565b60006001612f5f846111b2565b612f69919061434f565b905060006098600084815260200190815260200160002054905081811461304e576000609760008673ffffffffffffffffffffffffffffffffffffffff1673ffffffffffffffffffffffffffffffffffffffff168152602001908152602001600020600084815260200190815260200160002054905080609760008773ffffffffffffffffffffffffffffffffffffffff1673ffffffffffffffffffffffffffffffffffffffff168152602001908152602001600020600084815260200190815260200160002081905550816098600083815260200190815260200160002081905550505b6098600084815260200190815260200160002060009055609760008573ffffffffffffffffffffffffffffffffffffffff1673ffffffffffffffffffffffffffffffffffffffff16815260200190815260200160002060008381526020019081526020016000206000905550505050565b600060016099805490506130d3919061434f565b90506000609a6000848152602001908152602001600020549050600060998381548110613129577f4e487b7100000000000000000000000000000000000000000000000000000000600052603260045260246000fd5b906000526020600020015490508060998381548110613171577f4e487b7100000000000000000000000000000000000000000000000000000000600052603260045260246000fd5b906000526020600020018190555081609a600083815260200190815260200160002081905550609a60008581526020019081526020016000206000905560998054806131e6577f4e487b7100000000000000000000000000000000000000000000000000000000600052603160045260246000fd5b6001900381819060005260206000200160009055905550505050565b600061320d836111b2565b905081609760008573ffffffffffffffffffffffffffffffffffffffff1673ffffffffffffffffffffffffffffffffffffffff168152602001908152602001600020600083815260200190815260200160002081905550806098600084815260200190815260200160002081905550505050565b60608315613291578290506132e1565b6000835111156132a45782518084602001fd5b816040517f08c379a00000000000000000000000000000000000000000000000000000000081526004016132d89190613e2e565b60405180910390fd5b9392505050565b8280546132f490614462565b90600052602060002090601f016020900481019282613316576000855561335d565b82601f1061332f57805160ff191683800117855561335d565b8280016001018555821561335d579182015b8281111561335c578251825591602001919060010190613341565b5b50905061336a919061336e565b5090565b5b8082111561338757600081600090555060010161336f565b5090565b600061339e61339984614210565b6141eb565b9050828152602081018484840111156133b657600080fd5b6133c1848285614420565b509392505050565b6000813590506133d881614d5d565b92915050565b6000813590506133ed81614d74565b92915050565b60008151905061340281614d8b565b92915050565b60008135905061341781614da2565b92915050565b60008151905061342c81614da2565b92915050565b600082601f83011261344357600080fd5b813561345384826020860161338b565b91505092915050565b60008135905061346b81614db9565b92915050565b60006020828403121561348357600080fd5b6000613491848285016133c9565b91505092915050565b600080604083850312156134ad57600080fd5b60006134bb858286016133c9565b92505060206134cc858286016133c9565b9150509250929050565b6000806000606084860312156134eb57600080fd5b60006134f9868287016133c9565b935050602061350a868287016133c9565b925050604061351b8682870161345c565b9150509250925092565b6000806000806080858703121561353b57600080fd5b6000613549878288016133c9565b945050602061355a878288016133c9565b935050604061356b8782880161345c565b925050606085013567ffffffffffffffff81111561358857600080fd5b61359487828801613432565b91505092959194509250565b600080604083850312156135b357600080fd5b60006135c1858286016133c9565b92505060206135d2858286016133de565b9150509250929050565b600080604083850312156135ef57600080fd5b60006135fd858286016133c9565b925050602083013567ffffffffffffffff81111561361a57600080fd5b61362685828601613432565b9150509250929050565b6000806040838503121561364357600080fd5b6000613651858286016133c9565b92505060206136628582860161345c565b9150509250929050565b60006020828403121561367e57600080fd5b600061368c848285016133de565b91505092915050565b6000602082840312156136a757600080fd5b60006136b5848285016133f3565b91505092915050565b6000602082840312156136d057600080fd5b60006136de84828501613408565b91505092915050565b6000602082840312156136f957600080fd5b60006137078482850161341d565b91505092915050565b60006020828403121561372257600080fd5b60006137308482850161345c565b91505092915050565b60006137458383613cb6565b60208301905092915050565b61375a81614383565b82525050565b600061376b82614251565b613775818561427f565b935061378083614241565b8060005b838110156137b15781516137988882613739565b97506137a383614272565b925050600181019050613784565b5085935050505092915050565b6137c781614395565b82525050565b6137d6816143a1565b82525050565b60006137e78261425c565b6137f18185614290565b935061380181856020860161442f565b61380a816145fb565b840191505092915050565b60006138208261425c565b61382a81856142a1565b935061383a81856020860161442f565b80840191505092915050565b61384f8161440e565b82525050565b600061386082614267565b61386a81856142ac565b935061387a81856020860161442f565b613883816145fb565b840191505092915050565b600061389982614267565b6138a381856142bd565b93506138b381856020860161442f565b80840191505092915050565b60006138cc602b836142ac565b91506138d78261460c565b604082019050919050565b60006138ef6032836142ac565b91506138fa8261465b565b604082019050919050565b6000613912601a836142ac565b915061391d826146aa565b602082019050919050565b60006139356026836142ac565b9150613940826146d3565b604082019050919050565b60006139586025836142ac565b915061396382614722565b604082019050919050565b600061397b601c836142ac565b915061398682614771565b602082019050919050565b600061399e602c836142ac565b91506139a98261479a565b604082019050919050565b60006139c16024836142ac565b91506139cc826147e9565b604082019050919050565b60006139e46019836142ac565b91506139ef82614838565b602082019050919050565b6000613a07600f836142ac565b9150613a1282614861565b602082019050919050565b6000613a2a602c836142ac565b9150613a358261488a565b604082019050919050565b6000613a4d6038836142ac565b9150613a58826148d9565b604082019050919050565b6000613a706029836142ac565b9150613a7b82614928565b604082019050919050565b6000613a936029836142ac565b9150613a9e82614977565b604082019050919050565b6000613ab6602e836142ac565b9150613ac1826149c6565b604082019050919050565b6000613ad9603e836142ac565b9150613ae482614a15565b604082019050919050565b6000613afc6020836142ac565b9150613b0782614a64565b602082019050919050565b6000613b1f602e836142ac565b9150613b2a82614a8d565b604082019050919050565b6000613b42602d836142ac565b9150613b4d82614adc565b604082019050919050565b6000613b656020836142ac565b9150613b7082614b2b565b602082019050919050565b6000613b886018836142ac565b9150613b9382614b54565b602082019050919050565b6000613bab6021836142ac565b9150613bb682614b7d565b604082019050919050565b6000613bce6026836142ac565b9150613bd982614bcc565b604082019050919050565b6000613bf16017836142ac565b9150613bfc82614c1b565b602082019050919050565b6000613c146000836142a1565b9150613c1f82614c44565b600082019050919050565b6000613c37602c836142ac565b9150613c4282614c47565b604082019050919050565b6000613c5a602b836142ac565b9150613c6582614c96565b604082019050919050565b6000613c7d602e836142ac565b9150613c8882614ce5565b604082019050919050565b6000613ca06011836142ac565b9150613cab82614d34565b602082019050919050565b613cbf816143f7565b82525050565b613cce816143f7565b82525050565b6000613ce08284613815565b915081905092915050565b6000613cf7828561388e565b9150613d03828461388e565b91508190509392505050565b6000613d1a82613c07565b9150819050919050565b6000602082019050613d396000830184613751565b92915050565b6000608082019050613d546000830187613751565b613d616020830186613751565b613d6e6040830185613cc5565b8181036060830152613d8081846137dc565b905095945050505050565b60006020820190508181036000830152613da58184613760565b905092915050565b6000602082019050613dc260008301846137be565b92915050565b6000604082019050613ddd60008301856137be565b8181036020830152613def81846137dc565b90509392505050565b6000602082019050613e0d60008301846137cd565b92915050565b6000602082019050613e286000830184613846565b92915050565b60006020820190508181036000830152613e488184613855565b905092915050565b60006020820190508181036000830152613e69816138bf565b9050919050565b60006020820190508181036000830152613e89816138e2565b9050919050565b60006020820190508181036000830152613ea981613905565b9050919050565b60006020820190508181036000830152613ec981613928565b9050919050565b60006020820190508181036000830152613ee98161394b565b9050919050565b60006020820190508181036000830152613f098161396e565b9050919050565b60006020820190508181036000830152613f2981613991565b9050919050565b60006020820190508181036000830152613f49816139b4565b9050919050565b60006020820190508181036000830152613f69816139d7565b9050919050565b60006020820190508181036000830152613f89816139fa565b9050919050565b60006020820190508181036000830152613fa981613a1d565b9050919050565b60006020820190508181036000830152613fc981613a40565b9050919050565b60006020820190508181036000830152613fe981613a63565b9050919050565b6000602082019050818103600083015261400981613a86565b9050919050565b6000602082019050818103600083015261402981613aa9565b9050919050565b6000602082019050818103600083015261404981613acc565b9050919050565b6000602082019050818103600083015261406981613aef565b9050919050565b6000602082019050818103600083015261408981613b12565b9050919050565b600060208201905081810360008301526140a981613b35565b9050919050565b600060208201905081810360008301526140c981613b58565b9050919050565b600060208201905081810360008301526140e981613b7b565b9050919050565b6000602082019050818103600083015261410981613b9e565b9050919050565b6000602082019050818103600083015261412981613bc1565b9050919050565b6000602082019050818103600083015261414981613be4565b9050919050565b6000602082019050818103600083015261416981613c2a565b9050919050565b6000602082019050818103600083015261418981613c4d565b9050919050565b600060208201905081810360008301526141a981613c70565b9050919050565b600060208201905081810360008301526141c981613c93565b9050919050565b60006020820190506141e56000830184613cc5565b92915050565b60006141f5614206565b90506142018282614494565b919050565b6000604051905090565b600067ffffffffffffffff82111561422b5761422a6145cc565b5b614234826145fb565b9050602081019050919050565b6000819050602082019050919050565b600081519050919050565b600081519050919050565b600081519050919050565b6000602082019050919050565b600082825260208201905092915050565b600082825260208201905092915050565b600081905092915050565b600082825260208201905092915050565b600081905092915050565b60006142d3826143f7565b91506142de836143f7565b9250827fffffffffffffffffffffffffffffffffffffffffffffffffffffffffffffffff038211156143135761431261453f565b5b828201905092915050565b6000614329826143f7565b9150614334836143f7565b9250826143445761434361456e565b5b828204905092915050565b600061435a826143f7565b9150614365836143f7565b9250828210156143785761437761453f565b5b828203905092915050565b600061438e826143d7565b9050919050565b60008115159050919050565b6000819050919050565b60007fffffffff0000000000000000000000000000000000000000000000000000000082169050919050565b600073ffffffffffffffffffffffffffffffffffffffff82169050919050565b6000819050919050565b600060ff82169050919050565b600061441982614401565b9050919050565b82818337600083830152505050565b60005b8381101561444d578082015181840152602081019050614432565b8381111561445c576000848401525b50505050565b6000600282049050600182168061447a57607f821691505b6020821081141561448e5761448d61459d565b5b50919050565b61449d826145fb565b810181811067ffffffffffffffff821117156144bc576144bb6145cc565b5b80604052505050565b60006144d0826143f7565b91507fffffffffffffffffffffffffffffffffffffffffffffffffffffffffffffffff8214156145035761450261453f565b5b600182019050919050565b6000614519826143f7565b9150614524836143f7565b9250826145345761453361456e565b5b828206905092915050565b7f4e487b7100000000000000000000000000000000000000000000000000000000600052601160045260246000fd5b7f4e487b7100000000000000000000000000000000000000000000000000000000600052601260045260246000fd5b7f4e487b7100000000000000000000000000000000000000000000000000000000600052602260045260246000fd5b7f4e487b7100000000000000000000000000000000000000000000000000000000600052604160045260246000fd5b6000601f19601f8301169050919050565b7f455243373231456e756d657261626c653a206f776e657220696e646578206f7560008201527f74206f6620626f756e6473000000000000000000000000000000000000000000602082015250565b7f4552433732313a207472616e7366657220746f206e6f6e20455243373231526560008201527f63656976657220696d706c656d656e7465720000000000000000000000000000602082015250565b7f4e6f20616d6f756e74206c65667420746f207769746864726177000000000000600082015250565b7f4f776e61626c653a206e6577206f776e657220697320746865207a65726f206160008201527f6464726573730000000000000000000000000000000000000000000000000000602082015250565b7f4552433732313a207472616e736665722066726f6d20696e636f72726563742060008201527f6f776e6572000000000000000000000000000000000000000000000000000000602082015250565b7f4552433732313a20746f6b656e20616c7265616479206d696e74656400000000600082015250565b7f46756e6374696f6e206d7573742062652063616c6c6564207468726f7567682060008201527f64656c656761746563616c6c0000000000000000000000000000000000000000602082015250565b7f4552433732313a207472616e7366657220746f20746865207a65726f2061646460008201527f7265737300000000000000000000000000000000000000000000000000000000602082015250565b7f4552433732313a20617070726f766520746f2063616c6c657200000000000000600082015250565b7f546f6b656e206973206d696e7465640000000000000000000000000000000000600082015250565b7f46756e6374696f6e206d7573742062652063616c6c6564207468726f7567682060008201527f6163746976652070726f78790000000000000000000000000000000000000000602082015250565b7f555550535570677261646561626c653a206d757374206e6f742062652063616c60008201527f6c6564207468726f7567682064656c656761746563616c6c0000000000000000602082015250565b7f4552433732313a2061646472657373207a65726f206973206e6f74206120766160008201527f6c6964206f776e65720000000000000000000000000000000000000000000000602082015250565b7f45524331393637557067726164653a20756e737570706f727465642070726f7860008201527f6961626c65555549440000000000000000000000000000000000000000000000602082015250565b7f496e697469616c697a61626c653a20636f6e747261637420697320616c72656160008201527f647920696e697469616c697a6564000000000000000000000000000000000000602082015250565b7f4552433732313a20617070726f76652063616c6c6572206973206e6f7420746f60008201527f6b656e206f776e6572206e6f7220617070726f76656420666f7220616c6c0000602082015250565b7f4552433732313a206d696e7420746f20746865207a65726f2061646472657373600082015250565b7f45524331393637557067726164653a206e657720696d706c656d656e7461746960008201527f6f6e206973206e6f742055555053000000000000000000000000000000000000602082015250565b7f455243313936373a206e657720696d706c656d656e746174696f6e206973206e60008201527f6f74206120636f6e747261637400000000000000000000000000000000000000602082015250565b7f4f776e61626c653a2063616c6c6572206973206e6f7420746865206f776e6572600082015250565b7f4552433732313a20696e76616c696420746f6b656e2049440000000000000000600082015250565b7f4552433732313a20617070726f76616c20746f2063757272656e74206f776e6560008201527f7200000000000000000000000000000000000000000000000000000000000000602082015250565b7f416464726573733a2064656c65676174652063616c6c20746f206e6f6e2d636f60008201527f6e74726163740000000000000000000000000000000000000000000000000000602082015250565b7f4e65656420746f2073656e64206d6f7265204d41544943000000000000000000600082015250565b50565b7f455243373231456e756d657261626c653a20676c6f62616c20696e646578206f60008201527f7574206f6620626f756e64730000000000000000000000000000000000000000602082015250565b7f496e697469616c697a61626c653a20636f6e7472616374206973206e6f74206960008201527f6e697469616c697a696e67000000000000000000000000000000000000000000602082015250565b7f4552433732313a2063616c6c6572206973206e6f7420746f6b656e206f776e6560008201527f72206e6f7220617070726f766564000000000000000000000000000000000000602082015250565b7f5769746864726177616c206661696c6564000000000000000000000000000000600082015250565b614d6681614383565b8114614d7157600080fd5b50565b614d7d81614395565b8114614d8857600080fd5b50565b614d94816143a1565b8114614d9f57600080fd5b50565b614dab816143ab565b8114614db657600080fd5b50565b614dc2816143f7565b8114614dcd57600080fd5b5056fe416464726573733a206c6f772d6c6576656c2064656c65676174652063616c6c206661696c656468747470733a2f2f73746167696e672d746f70736576656e2e7765622e6170702f6d6574612fa2646970667358221220d78acddf5186e72cf171e176e96fa9b25dc88225fa488552b75246839b735d7264736f6c63430008040033",
  "linkReferences": {},
  "deployedLinkReferences": {}
}