{
  "_format": "hh-sol-artifact-1",
  "contractName": "TopSevenPlayer",
  "sourceName": "contracts/TopSevenPlayer.sol",
  "abi": [
    {
      "inputs": [],
      "stateMutability": "nonpayable",
      "type": "constructor"
    },
    {
      "anonymous": false,
      "inputs": [
        {
          "indexed": false,
          "internalType": "address",
          "name": "previousAdmin",
          "type": "address"
        },
        {
          "indexed": false,
          "internalType": "address",
          "name": "newAdmin",
          "type": "address"
        }
      ],
      "name": "AdminChanged",
      "type": "event"
    },
    {
      "anonymous": false,
      "inputs": [
        {
          "indexed": true,
          "internalType": "address",
          "name": "owner",
          "type": "address"
        },
        {
          "indexed": true,
          "internalType": "address",
          "name": "approved",
          "type": "address"
        },
        {
          "indexed": true,
          "internalType": "uint256",
          "name": "tokenId",
          "type": "uint256"
        }
      ],
      "name": "Approval",
      "type": "event"
    },
    {
      "anonymous": false,
      "inputs": [
        {
          "indexed": true,
          "internalType": "address",
          "name": "owner",
          "type": "address"
        },
        {
          "indexed": true,
          "internalType": "address",
          "name": "operator",
          "type": "address"
        },
        {
          "indexed": false,
          "internalType": "bool",
          "name": "approved",
          "type": "bool"
        }
      ],
      "name": "ApprovalForAll",
      "type": "event"
    },
    {
      "anonymous": false,
      "inputs": [
        {
          "indexed": true,
          "internalType": "address",
          "name": "beacon",
          "type": "address"
        }
      ],
      "name": "BeaconUpgraded",
      "type": "event"
    },
    {
      "anonymous": false,
      "inputs": [
        {
          "indexed": false,
          "internalType": "uint8",
          "name": "version",
          "type": "uint8"
        }
      ],
      "name": "Initialized",
      "type": "event"
    },
    {
      "anonymous": false,
      "inputs": [
        {
          "indexed": false,
          "internalType": "uint256",
          "name": "amount",
          "type": "uint256"
        },
        {
          "indexed": false,
          "internalType": "uint256",
          "name": "gas",
          "type": "uint256"
        }
      ],
      "name": "Log",
      "type": "event"
    },
    {
      "anonymous": false,
      "inputs": [
        {
          "indexed": true,
          "internalType": "address",
          "name": "previousOwner",
          "type": "address"
        },
        {
          "indexed": true,
          "internalType": "address",
          "name": "newOwner",
          "type": "address"
        }
      ],
      "name": "OwnershipTransferred",
      "type": "event"
    },
    {
      "anonymous": false,
      "inputs": [
        {
          "indexed": false,
          "internalType": "bool",
          "name": "success",
          "type": "bool"
        },
        {
          "indexed": false,
          "internalType": "bytes",
          "name": "data",
          "type": "bytes"
        }
      ],
      "name": "ResultsFromCall",
      "type": "event"
    },
    {
      "anonymous": false,
      "inputs": [
        {
          "indexed": true,
          "internalType": "address",
          "name": "from",
          "type": "address"
        },
        {
          "indexed": true,
          "internalType": "address",
          "name": "to",
          "type": "address"
        },
        {
          "indexed": true,
          "internalType": "uint256",
          "name": "tokenId",
          "type": "uint256"
        }
      ],
      "name": "Transfer",
      "type": "event"
    },
    {
      "anonymous": false,
      "inputs": [
        {
          "indexed": true,
          "internalType": "address",
          "name": "implementation",
          "type": "address"
        }
      ],
      "name": "Upgraded",
      "type": "event"
    },
    {
      "inputs": [],
      "name": "BASE_PRICE",
      "outputs": [
        {
          "internalType": "uint256",
          "name": "",
          "type": "uint256"
        }
      ],
      "stateMutability": "view",
      "type": "function"
    },
    {
      "inputs": [],
      "name": "IS_FREE_MINT",
      "outputs": [
        {
          "internalType": "bool",
          "name": "",
          "type": "bool"
        }
      ],
      "stateMutability": "view",
      "type": "function"
    },
    {
      "inputs": [],
      "name": "LEGEND_BASE_PRICE",
      "outputs": [
        {
          "internalType": "uint256",
          "name": "",
          "type": "uint256"
        }
      ],
      "stateMutability": "view",
      "type": "function"
    },
    {
      "inputs": [],
      "name": "MIN_LEGEND_ID",
      "outputs": [
        {
          "internalType": "uint256",
          "name": "",
          "type": "uint256"
        }
      ],
      "stateMutability": "view",
      "type": "function"
    },
    {
      "inputs": [
        {
          "internalType": "address",
          "name": "to",
          "type": "address"
        },
        {
          "internalType": "uint256",
          "name": "tokenId",
          "type": "uint256"
        }
      ],
      "name": "approve",
      "outputs": [],
      "stateMutability": "nonpayable",
      "type": "function"
    },
    {
      "inputs": [
        {
          "internalType": "address",
          "name": "owner",
          "type": "address"
        }
      ],
      "name": "balanceOf",
      "outputs": [
        {
          "internalType": "uint256",
          "name": "",
          "type": "uint256"
        }
      ],
      "stateMutability": "view",
      "type": "function"
    },
    {
      "inputs": [
        {
          "internalType": "uint256",
          "name": "tokenId",
          "type": "uint256"
        }
      ],
      "name": "getApproved",
      "outputs": [
        {
          "internalType": "address",
          "name": "",
          "type": "address"
        }
      ],
      "stateMutability": "view",
      "type": "function"
    },
    {
      "inputs": [],
      "name": "initialize",
      "outputs": [],
      "stateMutability": "nonpayable",
      "type": "function"
    },
    {
      "inputs": [
        {
          "internalType": "address",
          "name": "owner",
          "type": "address"
        },
        {
          "internalType": "address",
          "name": "operator",
          "type": "address"
        }
      ],
      "name": "isApprovedForAll",
      "outputs": [
        {
          "internalType": "bool",
          "name": "",
          "type": "bool"
        }
      ],
      "stateMutability": "view",
      "type": "function"
    },
    {
      "inputs": [],
      "name": "name",
      "outputs": [
        {
          "internalType": "string",
          "name": "",
          "type": "string"
        }
      ],
      "stateMutability": "view",
      "type": "function"
    },
    {
      "inputs": [],
      "name": "owner",
      "outputs": [
        {
          "internalType": "address",
          "name": "",
          "type": "address"
        }
      ],
      "stateMutability": "view",
      "type": "function"
    },
    {
      "inputs": [
        {
          "internalType": "uint256",
          "name": "tokenId",
          "type": "uint256"
        }
      ],
      "name": "ownerOf",
      "outputs": [
        {
          "internalType": "address",
          "name": "",
          "type": "address"
        }
      ],
      "stateMutability": "view",
      "type": "function"
    },
    {
      "inputs": [],
      "name": "proxiableUUID",
      "outputs": [
        {
          "internalType": "bytes32",
          "name": "",
          "type": "bytes32"
        }
      ],
      "stateMutability": "view",
      "type": "function"
    },
    {
      "inputs": [],
      "name": "renounceOwnership",
      "outputs": [],
      "stateMutability": "nonpayable",
      "type": "function"
    },
    {
      "inputs": [
        {
          "internalType": "address",
          "name": "to",
          "type": "address"
        },
        {
          "internalType": "uint256",
          "name": "tokenId",
          "type": "uint256"
        }
      ],
      "name": "safeMint",
      "outputs": [],
      "stateMutability": "payable",
      "type": "function"
    },
    {
      "inputs": [
        {
          "internalType": "address",
          "name": "from",
          "type": "address"
        },
        {
          "internalType": "address",
          "name": "to",
          "type": "address"
        },
        {
          "internalType": "uint256",
          "name": "tokenId",
          "type": "uint256"
        }
      ],
      "name": "safeTransferFrom",
      "outputs": [],
      "stateMutability": "nonpayable",
      "type": "function"
    },
    {
      "inputs": [
        {
          "internalType": "address",
          "name": "from",
          "type": "address"
        },
        {
          "internalType": "address",
          "name": "to",
          "type": "address"
        },
        {
          "internalType": "uint256",
          "name": "tokenId",
          "type": "uint256"
        },
        {
          "internalType": "bytes",
          "name": "data",
          "type": "bytes"
        }
      ],
      "name": "safeTransferFrom",
      "outputs": [],
      "stateMutability": "nonpayable",
      "type": "function"
    },
    {
      "inputs": [
        {
          "internalType": "address",
          "name": "operator",
          "type": "address"
        },
        {
          "internalType": "bool",
          "name": "approved",
          "type": "bool"
        }
      ],
      "name": "setApprovalForAll",
      "outputs": [],
      "stateMutability": "nonpayable",
      "type": "function"
    },
    {
      "inputs": [
        {
          "internalType": "uint256",
          "name": "_basePrice",
          "type": "uint256"
        }
      ],
      "name": "setBasePrice",
      "outputs": [],
      "stateMutability": "nonpayable",
      "type": "function"
    },
    {
      "inputs": [
        {
          "internalType": "bool",
          "name": "_isFreeMint",
          "type": "bool"
        }
      ],
      "name": "setIsFreeMint",
      "outputs": [],
      "stateMutability": "nonpayable",
      "type": "function"
    },
    {
      "inputs": [
        {
          "internalType": "uint256",
          "name": "_legendBasePrice",
          "type": "uint256"
        }
      ],
      "name": "setLegendBasePrice",
      "outputs": [],
      "stateMutability": "nonpayable",
      "type": "function"
    },
    {
      "inputs": [
        {
          "internalType": "uint256",
          "name": "_minLegendId",
          "type": "uint256"
        }
      ],
      "name": "setMinLegendId",
      "outputs": [],
      "stateMutability": "nonpayable",
      "type": "function"
    },
    {
      "inputs": [
        {
          "internalType": "bytes4",
          "name": "interfaceId",
          "type": "bytes4"
        }
      ],
      "name": "supportsInterface",
      "outputs": [
        {
          "internalType": "bool",
          "name": "",
          "type": "bool"
        }
      ],
      "stateMutability": "view",
      "type": "function"
    },
    {
      "inputs": [],
      "name": "symbol",
      "outputs": [
        {
          "internalType": "string",
          "name": "",
          "type": "string"
        }
      ],
      "stateMutability": "view",
      "type": "function"
    },
    {
      "inputs": [
        {
          "internalType": "uint256",
          "name": "index",
          "type": "uint256"
        }
      ],
      "name": "tokenByIndex",
      "outputs": [
        {
          "internalType": "uint256",
          "name": "",
          "type": "uint256"
        }
      ],
      "stateMutability": "view",
      "type": "function"
    },
    {
      "inputs": [
        {
          "internalType": "address",
          "name": "owner",
          "type": "address"
        },
        {
          "internalType": "uint256",
          "name": "index",
          "type": "uint256"
        }
      ],
      "name": "tokenOfOwnerByIndex",
      "outputs": [
        {
          "internalType": "uint256",
          "name": "",
          "type": "uint256"
        }
      ],
      "stateMutability": "view",
      "type": "function"
    },
    {
      "inputs": [
        {
          "internalType": "uint256",
          "name": "tokenId",
          "type": "uint256"
        }
      ],
      "name": "tokenURI",
      "outputs": [
        {
          "internalType": "string",
          "name": "",
          "type": "string"
        }
      ],
      "stateMutability": "view",
      "type": "function"
    },
    {
      "inputs": [],
      "name": "totalSupply",
      "outputs": [
        {
          "internalType": "uint256",
          "name": "",
          "type": "uint256"
        }
      ],
      "stateMutability": "view",
      "type": "function"
    },
    {
      "inputs": [
        {
          "internalType": "address",
          "name": "from",
          "type": "address"
        },
        {
          "internalType": "address",
          "name": "to",
          "type": "address"
        },
        {
          "internalType": "uint256",
          "name": "tokenId",
          "type": "uint256"
        }
      ],
      "name": "transferFrom",
      "outputs": [],
      "stateMutability": "nonpayable",
      "type": "function"
    },
    {
      "inputs": [
        {
          "internalType": "address",
          "name": "newOwner",
          "type": "address"
        }
      ],
      "name": "transferOwnership",
      "outputs": [],
      "stateMutability": "nonpayable",
      "type": "function"
    },
    {
      "inputs": [
        {
          "internalType": "address",
          "name": "newImplementation",
          "type": "address"
        }
      ],
      "name": "upgradeTo",
      "outputs": [],
      "stateMutability": "nonpayable",
      "type": "function"
    },
    {
      "inputs": [
        {
          "internalType": "address",
          "name": "newImplementation",
          "type": "address"
        },
        {
          "internalType": "bytes",
          "name": "data",
          "type": "bytes"
        }
      ],
      "name": "upgradeToAndCall",
      "outputs": [],
      "stateMutability": "payable",
      "type": "function"
    },
    {
      "inputs": [],
      "name": "withdraw",
      "outputs": [],
      "stateMutability": "nonpayable",
      "type": "function"
    }
  ],
  "bytecode": "0x60a06040523073ffffffffffffffffffffffffffffffffffffffff1660809073ffffffffffffffffffffffffffffffffffffffff1660601b8152503480156200004757600080fd5b50620000586200005e60201b60201c565b62000209565b600060019054906101000a900460ff1615620000b1576040517f08c379a0000000000000000000000000000000000000000000000000000000008152600401620000a8906200015d565b60405180910390fd5b60ff801660008054906101000a900460ff1660ff161015620001235760ff6000806101000a81548160ff021916908360ff1602179055507f7f26b83ff96e1f2b6a682f133852f6798a09c465da95921460cefb384740249860ff6040516200011a91906200017f565b60405180910390a15b565b6000620001346027836200019c565b91506200014182620001ba565b604082019050919050565b6200015781620001ad565b82525050565b60006020820190508181036000830152620001788162000125565b9050919050565b60006020820190506200019660008301846200014c565b92915050565b600082825260208201905092915050565b600060ff82169050919050565b7f496e697469616c697a61626c653a20636f6e747261637420697320696e69746960008201527f616c697a696e6700000000000000000000000000000000000000000000000000602082015250565b60805160601c614cba6200024460003960008181610ab401528181610b4301528181610dbf01528181610e4e0152610f950152614cba6000f3fe6080604052600436106101ee5760003560e01c806370a082311161010d578063b25e92e4116100a0578063e985e9c51161006f578063e985e9c5146106bb578063ef5d87d7146106f8578063f2fde38b14610721578063f86325ed1461074a578063fe22f97d14610775576101ee565b8063b25e92e414610601578063b88d4fde1461062c578063c87b56dd14610655578063de4b326214610692576101ee565b806395d89b41116100dc57806395d89b4114610566578063a144819414610591578063a22cb465146105ad578063ad8a06e6146105d6576101ee565b806370a08231146104d0578063715018a61461050d5780638129fc1c146105245780638da5cb5b1461053b576101ee565b80633ccfd60b1161018557806352d1902d1161015457806352d1902d1461041457806362ac9c961461043f5780636352211e1461046a57806366a9499c146104a7576101ee565b80633ccfd60b1461037b57806342842e0e146103925780634f1ef286146103bb5780634f6ccce7146103d7576101ee565b806318160ddd116101c157806318160ddd146102c157806323b872dd146102ec5780632f745c59146103155780633659cfe614610352576101ee565b806301ffc9a7146101f357806306fdde0314610230578063081812fc1461025b578063095ea7b314610298575b600080fd5b3480156101ff57600080fd5b5061021a60048036038101906102159190613605565b61079e565b6040516102279190613c4d565b60405180910390f35b34801561023c57600080fd5b506102456107b0565b6040516102529190613cce565b60405180910390f35b34801561026757600080fd5b50610282600480360381019061027d9190613657565b610842565b60405161028f9190613be6565b60405180910390f35b3480156102a457600080fd5b506102bf60048036038101906102ba9190613577565b610888565b005b3480156102cd57600080fd5b506102d66109a0565b6040516102e39190614070565b60405180910390f35b3480156102f857600080fd5b50610313600480360381019061030e919061341d565b6109ad565b005b34801561032157600080fd5b5061033c60048036038101906103379190613577565b610a0d565b6040516103499190614070565b60405180910390f35b34801561035e57600080fd5b50610379600480360381019061037491906133b8565b610ab2565b005b34801561038757600080fd5b50610390610c61565b005b34801561039e57600080fd5b506103b960048036038101906103b4919061341d565b610d9d565b005b6103d560048036038101906103d09190613523565b610dbd565b005b3480156103e357600080fd5b506103fe60048036038101906103f99190613657565b610efa565b60405161040b9190614070565b60405180910390f35b34801561042057600080fd5b50610429610f91565b6040516104369190613c98565b60405180910390f35b34801561044b57600080fd5b5061045461104a565b6040516104619190613c4d565b60405180910390f35b34801561047657600080fd5b50610491600480360381019061048c9190613657565b61105e565b60405161049e9190613be6565b60405180910390f35b3480156104b357600080fd5b506104ce60048036038101906104c99190613657565b611110565b005b3480156104dc57600080fd5b506104f760048036038101906104f291906133b8565b611123565b6040516105049190614070565b60405180910390f35b34801561051957600080fd5b506105226111db565b005b34801561053057600080fd5b506105396111ef565b005b34801561054757600080fd5b506105506113ef565b60405161055d9190613be6565b60405180910390f35b34801561057257600080fd5b5061057b611419565b6040516105889190613cce565b60405180910390f35b6105ab60048036038101906105a69190613577565b6114ab565b005b3480156105b957600080fd5b506105d460048036038101906105cf91906134e7565b6115b4565b005b3480156105e257600080fd5b506105eb6115ca565b6040516105f89190614070565b60405180910390f35b34801561060d57600080fd5b506106166115d1565b6040516106239190614070565b60405180910390f35b34801561063857600080fd5b50610653600480360381019061064e919061346c565b6115d8565b005b34801561066157600080fd5b5061067c60048036038101906106779190613657565b61163a565b6040516106899190613cce565b60405180910390f35b34801561069e57600080fd5b506106b960048036038101906106b49190613657565b6116a2565b005b3480156106c757600080fd5b506106e260048036038101906106dd91906133e1565b6116b5565b6040516106ef9190613c4d565b60405180910390f35b34801561070457600080fd5b5061071f600480360381019061071a91906135b3565b611749565b005b34801561072d57600080fd5b50610748600480360381019061074391906133b8565b61176f565b005b34801561075657600080fd5b5061075f6117f3565b60405161076c9190614070565b60405180910390f35b34801561078157600080fd5b5061079c60048036038101906107979190613657565b6117fa565b005b60006107a98261180d565b9050919050565b6060606580546107bf906142c9565b80601f01602080910402602001604051908101604052809291908181526020018280546107eb906142c9565b80156108385780601f1061080d57610100808354040283529160200191610838565b820191906000526020600020905b81548152906001019060200180831161081b57829003601f168201915b5050505050905090565b600061084d82611887565b6069600083815260200190815260200160002060009054906101000a900473ffffffffffffffffffffffffffffffffffffffff169050919050565b60006108938261105e565b90508073ffffffffffffffffffffffffffffffffffffffff168373ffffffffffffffffffffffffffffffffffffffff161415610904576040517f08c379a00000000000000000000000000000000000000000000000000000000081526004016108fb90613f90565b60405180910390fd5b8073ffffffffffffffffffffffffffffffffffffffff166109236118d2565b73ffffffffffffffffffffffffffffffffffffffff16148061095257506109518161094c6118d2565b6116b5565b5b610991576040517f08c379a000000000000000000000000000000000000000000000000000000000815260040161098890613ed0565b60405180910390fd5b61099b83836118da565b505050565b6000609980549050905090565b6109be6109b86118d2565b82611993565b6109fd576040517f08c379a00000000000000000000000000000000000000000000000000000000081526004016109f490614030565b60405180910390fd5b610a08838383611a28565b505050565b6000610a1883611123565b8210610a59576040517f08c379a0000000000000000000000000000000000000000000000000000000008152600401610a5090613cf0565b60405180910390fd5b609760008473ffffffffffffffffffffffffffffffffffffffff1673ffffffffffffffffffffffffffffffffffffffff168152602001908152602001600020600083815260200190815260200160002054905092915050565b7f000000000000000000000000000000000000000000000000000000000000000073ffffffffffffffffffffffffffffffffffffffff163073ffffffffffffffffffffffffffffffffffffffff161415610b41576040517f08c379a0000000000000000000000000000000000000000000000000000000008152600401610b3890613db0565b60405180910390fd5b7f000000000000000000000000000000000000000000000000000000000000000073ffffffffffffffffffffffffffffffffffffffff16610b80611c8f565b73ffffffffffffffffffffffffffffffffffffffff1614610bd6576040517f08c379a0000000000000000000000000000000000000000000000000000000008152600401610bcd90613e30565b60405180910390fd5b610bdf81611ce6565b610c5e81600067ffffffffffffffff811115610c24577f4e487b7100000000000000000000000000000000000000000000000000000000600052604160045260246000fd5b6040519080825280601f01601f191660200182016040528015610c565781602001600182028036833780820191505090505b506000611cf1565b50565b610c69611e6e565b600047905060008111610cb1576040517f08c379a0000000000000000000000000000000000000000000000000000000008152600401610ca890613d30565b60405180910390fd5b6000803373ffffffffffffffffffffffffffffffffffffffff1683604051610cd890613bd1565b60006040518083038185875af1925050503d8060008114610d15576040519150601f19603f3d011682016040523d82523d6000602084013e610d1a565b606091505b509150915081610d5f576040517f08c379a0000000000000000000000000000000000000000000000000000000008152600401610d5690614050565b60405180910390fd5b7ffe0c8fdb7358cac52628b197c1f1419c599e01d9894a88eefab41a1a1839d2918282604051610d90929190613c68565b60405180910390a1505050565b610db8838383604051806020016040528060008152506115d8565b505050565b7f000000000000000000000000000000000000000000000000000000000000000073ffffffffffffffffffffffffffffffffffffffff163073ffffffffffffffffffffffffffffffffffffffff161415610e4c576040517f08c379a0000000000000000000000000000000000000000000000000000000008152600401610e4390613db0565b60405180910390fd5b7f000000000000000000000000000000000000000000000000000000000000000073ffffffffffffffffffffffffffffffffffffffff16610e8b611c8f565b73ffffffffffffffffffffffffffffffffffffffff1614610ee1576040517f08c379a0000000000000000000000000000000000000000000000000000000008152600401610ed890613e30565b60405180910390fd5b610eea82611ce6565b610ef682826001611cf1565b5050565b6000610f046109a0565b8210610f45576040517f08c379a0000000000000000000000000000000000000000000000000000000008152600401610f3c90613ff0565b60405180910390fd5b60998281548110610f7f577f4e487b7100000000000000000000000000000000000000000000000000000000600052603260045260246000fd5b90600052602060002001549050919050565b60007f000000000000000000000000000000000000000000000000000000000000000073ffffffffffffffffffffffffffffffffffffffff163073ffffffffffffffffffffffffffffffffffffffff1614611021576040517f08c379a000000000000000000000000000000000000000000000000000000000815260040161101890613e50565b60405180910390fd5b7f360894a13ba1a3210667c828492db98dca3e2076cc3735a920a3ca505d382bbc60001b905090565b61015f60009054906101000a900460ff1681565b6000806067600084815260200190815260200160002060009054906101000a900473ffffffffffffffffffffffffffffffffffffffff169050600073ffffffffffffffffffffffffffffffffffffffff168173ffffffffffffffffffffffffffffffffffffffff161415611107576040517f08c379a00000000000000000000000000000000000000000000000000000000081526004016110fe90613f70565b60405180910390fd5b80915050919050565b611118611e6e565b806101618190555050565b60008073ffffffffffffffffffffffffffffffffffffffff168273ffffffffffffffffffffffffffffffffffffffff161415611194576040517f08c379a000000000000000000000000000000000000000000000000000000000815260040161118b90613e70565b60405180910390fd5b606860008373ffffffffffffffffffffffffffffffffffffffff1673ffffffffffffffffffffffffffffffffffffffff168152602001908152602001600020549050919050565b6111e3611e6e565b6111ed6000611eec565b565b60008060019054906101000a900460ff161590508080156112205750600160008054906101000a900460ff1660ff16105b8061124d575061122f30611fb2565b15801561124c5750600160008054906101000a900460ff1660ff16145b5b61128c576040517f08c379a000000000000000000000000000000000000000000000000000000000815260040161128390613eb0565b60405180910390fd5b60016000806101000a81548160ff021916908360ff16021790555080156112c9576001600060016101000a81548160ff0219169083151502179055505b61133d6040518060400160405280600e81526020017f546f70536576656e506c617965720000000000000000000000000000000000008152506040518060400160405280600381526020017f5453500000000000000000000000000000000000000000000000000000000000815250611fd5565b611345612032565b61134d61208b565b600161015f60006101000a81548160ff0219169083151502179055506706f05b59d3b2000061016081905550670de0b6b3a7640000610161819055506103e86101628190555080156113ec5760008060016101000a81548160ff0219169083151502179055507f7f26b83ff96e1f2b6a682f133852f6798a09c465da95921460cefb384740249860016040516113e39190613cb3565b60405180910390a15b50565b600060c960009054906101000a900473ffffffffffffffffffffffffffffffffffffffff16905090565b606060668054611428906142c9565b80601f0160208091040260200160405190810160405280929190818152602001828054611454906142c9565b80156114a15780601f10611476576101008083540402835291602001916114a1565b820191906000526020600020905b81548152906001019060200180831161148457829003601f168201915b5050505050905090565b6114b4816120dc565b156114f4576040517f08c379a00000000000000000000000000000000000000000000000000000000081526004016114eb90613e10565b60405180910390fd5b61015f60009054906101000a900460ff166115a65761016254811061155e5761016154341015611559576040517f08c379a000000000000000000000000000000000000000000000000000000000815260040161155090613fd0565b60405180910390fd5b6115a5565b610160543410156115a4576040517f08c379a000000000000000000000000000000000000000000000000000000000815260040161159b90613fd0565b60405180910390fd5b5b5b6115b08282612148565b5050565b6115c66115bf6118d2565b8383612166565b5050565b6101625481565b6101615481565b6115e96115e36118d2565b83611993565b611628576040517f08c379a000000000000000000000000000000000000000000000000000000000815260040161161f90614030565b60405180910390fd5b611634848484846122d3565b50505050565b606061164582611887565b600061164f61232f565b9050600081511161166f576040518060200160405280600081525061169a565b806116798461234f565b60405160200161168a929190613bad565b6040516020818303038152906040525b915050919050565b6116aa611e6e565b806101608190555050565b6000606a60008473ffffffffffffffffffffffffffffffffffffffff1673ffffffffffffffffffffffffffffffffffffffff16815260200190815260200160002060008373ffffffffffffffffffffffffffffffffffffffff1673ffffffffffffffffffffffffffffffffffffffff16815260200190815260200160002060009054906101000a900460ff16905092915050565b611751611e6e565b8061015f60006101000a81548160ff02191690831515021790555050565b611777611e6e565b600073ffffffffffffffffffffffffffffffffffffffff168173ffffffffffffffffffffffffffffffffffffffff1614156117e7576040517f08c379a00000000000000000000000000000000000000000000000000000000081526004016117de90613d50565b60405180910390fd5b6117f081611eec565b50565b6101605481565b611802611e6e565b806101628190555050565b60007f780e9d63000000000000000000000000000000000000000000000000000000007bffffffffffffffffffffffffffffffffffffffffffffffffffffffff1916827bffffffffffffffffffffffffffffffffffffffffffffffffffffffff19161480611880575061187f826124fc565b5b9050919050565b611890816120dc565b6118cf576040517f08c379a00000000000000000000000000000000000000000000000000000000081526004016118c690613f70565b60405180910390fd5b50565b600033905090565b816069600083815260200190815260200160002060006101000a81548173ffffffffffffffffffffffffffffffffffffffff021916908373ffffffffffffffffffffffffffffffffffffffff160217905550808273ffffffffffffffffffffffffffffffffffffffff1661194d8361105e565b73ffffffffffffffffffffffffffffffffffffffff167f8c5be1e5ebec7d5bd14f71427d1e84f3dd0314c0f7b2291e5b200ac8c7c3b92560405160405180910390a45050565b60008061199f8361105e565b90508073ffffffffffffffffffffffffffffffffffffffff168473ffffffffffffffffffffffffffffffffffffffff1614806119e157506119e081856116b5565b5b80611a1f57508373ffffffffffffffffffffffffffffffffffffffff16611a0784610842565b73ffffffffffffffffffffffffffffffffffffffff16145b91505092915050565b8273ffffffffffffffffffffffffffffffffffffffff16611a488261105e565b73ffffffffffffffffffffffffffffffffffffffff1614611a9e576040517f08c379a0000000000000000000000000000000000000000000000000000000008152600401611a9590613d70565b60405180910390fd5b600073ffffffffffffffffffffffffffffffffffffffff168273ffffffffffffffffffffffffffffffffffffffff161415611b0e576040517f08c379a0000000000000000000000000000000000000000000000000000000008152600401611b0590613dd0565b60405180910390fd5b611b198383836125de565b611b246000826118da565b6001606860008573ffffffffffffffffffffffffffffffffffffffff1673ffffffffffffffffffffffffffffffffffffffff1681526020019081526020016000206000828254611b7491906141b6565b925050819055506001606860008473ffffffffffffffffffffffffffffffffffffffff1673ffffffffffffffffffffffffffffffffffffffff1681526020019081526020016000206000828254611bcb919061412f565b92505081905550816067600083815260200190815260200160002060006101000a81548173ffffffffffffffffffffffffffffffffffffffff021916908373ffffffffffffffffffffffffffffffffffffffff160217905550808273ffffffffffffffffffffffffffffffffffffffff168473ffffffffffffffffffffffffffffffffffffffff167fddf252ad1be2c89b69c2b068fc378daa952ba7f163c4a11628f55a4df523b3ef60405160405180910390a4611c8a8383836125ee565b505050565b6000611cbd7f360894a13ba1a3210667c828492db98dca3e2076cc3735a920a3ca505d382bbc60001b6125f3565b60000160009054906101000a900473ffffffffffffffffffffffffffffffffffffffff16905090565b611cee611e6e565b50565b611d1d7f4910fdfa16fed3260ed0e7147f7cc6da11a60208b5b9406d12a635614ffd914360001b6125fd565b60000160009054906101000a900460ff1615611d4157611d3c83612607565b611e69565b8273ffffffffffffffffffffffffffffffffffffffff166352d1902d6040518163ffffffff1660e01b815260040160206040518083038186803b158015611d8757600080fd5b505afa925050508015611db857506040513d601f19601f82011682018060405250810190611db591906135dc565b60015b611df7576040517f08c379a0000000000000000000000000000000000000000000000000000000008152600401611dee90613f10565b60405180910390fd5b7f360894a13ba1a3210667c828492db98dca3e2076cc3735a920a3ca505d382bbc60001b8114611e5c576040517f08c379a0000000000000000000000000000000000000000000000000000000008152600401611e5390613e90565b60405180910390fd5b50611e688383836126c0565b5b505050565b611e766118d2565b73ffffffffffffffffffffffffffffffffffffffff16611e946113ef565b73ffffffffffffffffffffffffffffffffffffffff1614611eea576040517f08c379a0000000000000000000000000000000000000000000000000000000008152600401611ee190613f50565b60405180910390fd5b565b600060c960009054906101000a900473ffffffffffffffffffffffffffffffffffffffff1690508160c960006101000a81548173ffffffffffffffffffffffffffffffffffffffff021916908373ffffffffffffffffffffffffffffffffffffffff1602179055508173ffffffffffffffffffffffffffffffffffffffff168173ffffffffffffffffffffffffffffffffffffffff167f8be0079c531659141344cd1fd0a4f28419497f9722a3daafe3b4186f6b6457e060405160405180910390a35050565b6000808273ffffffffffffffffffffffffffffffffffffffff163b119050919050565b600060019054906101000a900460ff16612024576040517f08c379a000000000000000000000000000000000000000000000000000000000815260040161201b90614010565b60405180910390fd5b61202e82826126ec565b5050565b600060019054906101000a900460ff16612081576040517f08c379a000000000000000000000000000000000000000000000000000000000815260040161207890614010565b60405180910390fd5b61208961276d565b565b600060019054906101000a900460ff166120da576040517f08c379a00000000000000000000000000000000000000000000000000000000081526004016120d190614010565b60405180910390fd5b565b60008073ffffffffffffffffffffffffffffffffffffffff166067600084815260200190815260200160002060009054906101000a900473ffffffffffffffffffffffffffffffffffffffff1673ffffffffffffffffffffffffffffffffffffffff1614159050919050565b6121628282604051806020016040528060008152506127ce565b5050565b8173ffffffffffffffffffffffffffffffffffffffff168373ffffffffffffffffffffffffffffffffffffffff1614156121d5576040517f08c379a00000000000000000000000000000000000000000000000000000000081526004016121cc90613df0565b60405180910390fd5b80606a60008573ffffffffffffffffffffffffffffffffffffffff1673ffffffffffffffffffffffffffffffffffffffff16815260200190815260200160002060008473ffffffffffffffffffffffffffffffffffffffff1673ffffffffffffffffffffffffffffffffffffffff16815260200190815260200160002060006101000a81548160ff0219169083151502179055508173ffffffffffffffffffffffffffffffffffffffff168373ffffffffffffffffffffffffffffffffffffffff167f17307eab39ab6107e8899845ad3d59bd9653f200f220920489ca2b5937696c31836040516122c69190613c4d565b60405180910390a3505050565b6122de848484611a28565b6122ea84848484612829565b612329576040517f08c379a000000000000000000000000000000000000000000000000000000000815260040161232090613d10565b60405180910390fd5b50505050565b6060604051806060016040528060268152602001614c5f60269139905090565b60606000821415612397576040518060400160405280600181526020017f300000000000000000000000000000000000000000000000000000000000000081525090506124f7565b600082905060005b600082146123c95780806123b29061432c565b915050600a826123c29190614185565b915061239f565b60008167ffffffffffffffff81111561240b577f4e487b7100000000000000000000000000000000000000000000000000000000600052604160045260246000fd5b6040519080825280601f01601f19166020018201604052801561243d5781602001600182028036833780820191505090505b5090505b600085146124f05760018261245691906141b6565b9150600a856124659190614375565b6030612471919061412f565b60f81b8183815181106124ad577f4e487b7100000000000000000000000000000000000000000000000000000000600052603260045260246000fd5b60200101907effffffffffffffffffffffffffffffffffffffffffffffffffffffffffffff1916908160001a905350600a856124e99190614185565b9450612441565b8093505050505b919050565b60007f80ac58cd000000000000000000000000000000000000000000000000000000007bffffffffffffffffffffffffffffffffffffffffffffffffffffffff1916827bffffffffffffffffffffffffffffffffffffffffffffffffffffffff191614806125c757507f5b5e139f000000000000000000000000000000000000000000000000000000007bffffffffffffffffffffffffffffffffffffffffffffffffffffffff1916827bffffffffffffffffffffffffffffffffffffffffffffffffffffffff1916145b806125d757506125d6826129c0565b5b9050919050565b6125e9838383612a2a565b505050565b505050565b6000819050919050565b6000819050919050565b61261081611fb2565b61264f576040517f08c379a000000000000000000000000000000000000000000000000000000000815260040161264690613f30565b60405180910390fd5b8061267c7f360894a13ba1a3210667c828492db98dca3e2076cc3735a920a3ca505d382bbc60001b6125f3565b60000160006101000a81548173ffffffffffffffffffffffffffffffffffffffff021916908373ffffffffffffffffffffffffffffffffffffffff16021790555050565b6126c983612b3e565b6000825111806126d65750805b156126e7576126e58383612b8d565b505b505050565b600060019054906101000a900460ff1661273b576040517f08c379a000000000000000000000000000000000000000000000000000000000815260040161273290614010565b60405180910390fd5b816065908051906020019061275192919061322f565b50806066908051906020019061276892919061322f565b505050565b600060019054906101000a900460ff166127bc576040517f08c379a00000000000000000000000000000000000000000000000000000000081526004016127b390614010565b60405180910390fd5b6127cc6127c76118d2565b611eec565b565b6127d88383612c71565b6127e56000848484612829565b612824576040517f08c379a000000000000000000000000000000000000000000000000000000000815260040161281b90613d10565b60405180910390fd5b505050565b600061284a8473ffffffffffffffffffffffffffffffffffffffff16611fb2565b156129b3578373ffffffffffffffffffffffffffffffffffffffff1663150b7a026128736118d2565b8786866040518563ffffffff1660e01b81526004016128959493929190613c01565b602060405180830381600087803b1580156128af57600080fd5b505af19250505080156128e057506040513d601f19601f820116820180604052508101906128dd919061362e565b60015b612963573d8060008114612910576040519150601f19603f3d011682016040523d82523d6000602084013e612915565b606091505b5060008151141561295b576040517f08c379a000000000000000000000000000000000000000000000000000000000815260040161295290613d10565b60405180910390fd5b805181602001fd5b63150b7a0260e01b7bffffffffffffffffffffffffffffffffffffffffffffffffffffffff1916817bffffffffffffffffffffffffffffffffffffffffffffffffffffffff1916149150506129b8565b600190505b949350505050565b60007f01ffc9a7000000000000000000000000000000000000000000000000000000007bffffffffffffffffffffffffffffffffffffffffffffffffffffffff1916827bffffffffffffffffffffffffffffffffffffffffffffffffffffffff1916149050919050565b612a35838383612e4b565b600073ffffffffffffffffffffffffffffffffffffffff168373ffffffffffffffffffffffffffffffffffffffff161415612a7857612a7381612e50565b612ab7565b8173ffffffffffffffffffffffffffffffffffffffff168373ffffffffffffffffffffffffffffffffffffffff1614612ab657612ab58382612e99565b5b5b600073ffffffffffffffffffffffffffffffffffffffff168273ffffffffffffffffffffffffffffffffffffffff161415612afa57612af581613006565b612b39565b8273ffffffffffffffffffffffffffffffffffffffff168273ffffffffffffffffffffffffffffffffffffffff1614612b3857612b378282613149565b5b5b505050565b612b4781612607565b8073ffffffffffffffffffffffffffffffffffffffff167fbc7cd75a20ee27fd9adebab32041f755214dbc6bffa90cc0225b39da2e5c2d3b60405160405180910390a250565b6060612b9883611fb2565b612bd7576040517f08c379a0000000000000000000000000000000000000000000000000000000008152600401612bce90613fb0565b60405180910390fd5b6000808473ffffffffffffffffffffffffffffffffffffffff1684604051612bff9190613b96565b600060405180830381855af49150503d8060008114612c3a576040519150601f19603f3d011682016040523d82523d6000602084013e612c3f565b606091505b5091509150612c678282604051806060016040528060278152602001614c38602791396131c8565b9250505092915050565b600073ffffffffffffffffffffffffffffffffffffffff168273ffffffffffffffffffffffffffffffffffffffff161415612ce1576040517f08c379a0000000000000000000000000000000000000000000000000000000008152600401612cd890613ef0565b60405180910390fd5b612cea816120dc565b15612d2a576040517f08c379a0000000000000000000000000000000000000000000000000000000008152600401612d2190613d90565b60405180910390fd5b612d36600083836125de565b6001606860008473ffffffffffffffffffffffffffffffffffffffff1673ffffffffffffffffffffffffffffffffffffffff1681526020019081526020016000206000828254612d86919061412f565b92505081905550816067600083815260200190815260200160002060006101000a81548173ffffffffffffffffffffffffffffffffffffffff021916908373ffffffffffffffffffffffffffffffffffffffff160217905550808273ffffffffffffffffffffffffffffffffffffffff16600073ffffffffffffffffffffffffffffffffffffffff167fddf252ad1be2c89b69c2b068fc378daa952ba7f163c4a11628f55a4df523b3ef60405160405180910390a4612e47600083836125ee565b5050565b505050565b609980549050609a600083815260200190815260200160002081905550609981908060018154018082558091505060019003906000526020600020016000909190919091505550565b60006001612ea684611123565b612eb091906141b6565b9050600060986000848152602001908152602001600020549050818114612f95576000609760008673ffffffffffffffffffffffffffffffffffffffff1673ffffffffffffffffffffffffffffffffffffffff168152602001908152602001600020600084815260200190815260200160002054905080609760008773ffffffffffffffffffffffffffffffffffffffff1673ffffffffffffffffffffffffffffffffffffffff168152602001908152602001600020600084815260200190815260200160002081905550816098600083815260200190815260200160002081905550505b6098600084815260200190815260200160002060009055609760008573ffffffffffffffffffffffffffffffffffffffff1673ffffffffffffffffffffffffffffffffffffffff16815260200190815260200160002060008381526020019081526020016000206000905550505050565b6000600160998054905061301a91906141b6565b90506000609a6000848152602001908152602001600020549050600060998381548110613070577f4e487b7100000000000000000000000000000000000000000000000000000000600052603260045260246000fd5b9060005260206000200154905080609983815481106130b8577f4e487b7100000000000000000000000000000000000000000000000000000000600052603260045260246000fd5b906000526020600020018190555081609a600083815260200190815260200160002081905550609a600085815260200190815260200160002060009055609980548061312d577f4e487b7100000000000000000000000000000000000000000000000000000000600052603160045260246000fd5b6001900381819060005260206000200160009055905550505050565b600061315483611123565b905081609760008573ffffffffffffffffffffffffffffffffffffffff1673ffffffffffffffffffffffffffffffffffffffff168152602001908152602001600020600083815260200190815260200160002081905550806098600084815260200190815260200160002081905550505050565b606083156131d857829050613228565b6000835111156131eb5782518084602001fd5b816040517f08c379a000000000000000000000000000000000000000000000000000000000815260040161321f9190613cce565b60405180910390fd5b9392505050565b82805461323b906142c9565b90600052602060002090601f01602090048101928261325d57600085556132a4565b82601f1061327657805160ff19168380011785556132a4565b828001600101855582156132a4579182015b828111156132a3578251825591602001919060010190613288565b5b5090506132b191906132b5565b5090565b5b808211156132ce5760008160009055506001016132b6565b5090565b60006132e56132e0846140b0565b61408b565b9050828152602081018484840111156132fd57600080fd5b613308848285614287565b509392505050565b60008135905061331f81614bc4565b92915050565b60008135905061333481614bdb565b92915050565b60008151905061334981614bf2565b92915050565b60008135905061335e81614c09565b92915050565b60008151905061337381614c09565b92915050565b600082601f83011261338a57600080fd5b813561339a8482602086016132d2565b91505092915050565b6000813590506133b281614c20565b92915050565b6000602082840312156133ca57600080fd5b60006133d884828501613310565b91505092915050565b600080604083850312156133f457600080fd5b600061340285828601613310565b925050602061341385828601613310565b9150509250929050565b60008060006060848603121561343257600080fd5b600061344086828701613310565b935050602061345186828701613310565b9250506040613462868287016133a3565b9150509250925092565b6000806000806080858703121561348257600080fd5b600061349087828801613310565b94505060206134a187828801613310565b93505060406134b2878288016133a3565b925050606085013567ffffffffffffffff8111156134cf57600080fd5b6134db87828801613379565b91505092959194509250565b600080604083850312156134fa57600080fd5b600061350885828601613310565b925050602061351985828601613325565b9150509250929050565b6000806040838503121561353657600080fd5b600061354485828601613310565b925050602083013567ffffffffffffffff81111561356157600080fd5b61356d85828601613379565b9150509250929050565b6000806040838503121561358a57600080fd5b600061359885828601613310565b92505060206135a9858286016133a3565b9150509250929050565b6000602082840312156135c557600080fd5b60006135d384828501613325565b91505092915050565b6000602082840312156135ee57600080fd5b60006135fc8482850161333a565b91505092915050565b60006020828403121561361757600080fd5b60006136258482850161334f565b91505092915050565b60006020828403121561364057600080fd5b600061364e84828501613364565b91505092915050565b60006020828403121561366957600080fd5b6000613677848285016133a3565b91505092915050565b613689816141ea565b82525050565b613698816141fc565b82525050565b6136a781614208565b82525050565b60006136b8826140e1565b6136c281856140f7565b93506136d2818560208601614296565b6136db81614462565b840191505092915050565b60006136f1826140e1565b6136fb8185614108565b935061370b818560208601614296565b80840191505092915050565b61372081614275565b82525050565b6000613731826140ec565b61373b8185614113565b935061374b818560208601614296565b61375481614462565b840191505092915050565b600061376a826140ec565b6137748185614124565b9350613784818560208601614296565b80840191505092915050565b600061379d602b83614113565b91506137a882614473565b604082019050919050565b60006137c0603283614113565b91506137cb826144c2565b604082019050919050565b60006137e3601a83614113565b91506137ee82614511565b602082019050919050565b6000613806602683614113565b91506138118261453a565b604082019050919050565b6000613829602583614113565b915061383482614589565b604082019050919050565b600061384c601c83614113565b9150613857826145d8565b602082019050919050565b600061386f602c83614113565b915061387a82614601565b604082019050919050565b6000613892602483614113565b915061389d82614650565b604082019050919050565b60006138b5601983614113565b91506138c08261469f565b602082019050919050565b60006138d8600f83614113565b91506138e3826146c8565b602082019050919050565b60006138fb602c83614113565b9150613906826146f1565b604082019050919050565b600061391e603883614113565b915061392982614740565b604082019050919050565b6000613941602983614113565b915061394c8261478f565b604082019050919050565b6000613964602983614113565b915061396f826147de565b604082019050919050565b6000613987602e83614113565b91506139928261482d565b604082019050919050565b60006139aa603e83614113565b91506139b58261487c565b604082019050919050565b60006139cd602083614113565b91506139d8826148cb565b602082019050919050565b60006139f0602e83614113565b91506139fb826148f4565b604082019050919050565b6000613a13602d83614113565b9150613a1e82614943565b604082019050919050565b6000613a36602083614113565b9150613a4182614992565b602082019050919050565b6000613a59601883614113565b9150613a64826149bb565b602082019050919050565b6000613a7c602183614113565b9150613a87826149e4565b604082019050919050565b6000613a9f602683614113565b9150613aaa82614a33565b604082019050919050565b6000613ac2601783614113565b9150613acd82614a82565b602082019050919050565b6000613ae5600083614108565b9150613af082614aab565b600082019050919050565b6000613b08602c83614113565b9150613b1382614aae565b604082019050919050565b6000613b2b602b83614113565b9150613b3682614afd565b604082019050919050565b6000613b4e602e83614113565b9150613b5982614b4c565b604082019050919050565b6000613b71601183614113565b9150613b7c82614b9b565b602082019050919050565b613b908161425e565b82525050565b6000613ba282846136e6565b915081905092915050565b6000613bb9828561375f565b9150613bc5828461375f565b91508190509392505050565b6000613bdc82613ad8565b9150819050919050565b6000602082019050613bfb6000830184613680565b92915050565b6000608082019050613c166000830187613680565b613c236020830186613680565b613c306040830185613b87565b8181036060830152613c4281846136ad565b905095945050505050565b6000602082019050613c62600083018461368f565b92915050565b6000604082019050613c7d600083018561368f565b8181036020830152613c8f81846136ad565b90509392505050565b6000602082019050613cad600083018461369e565b92915050565b6000602082019050613cc86000830184613717565b92915050565b60006020820190508181036000830152613ce88184613726565b905092915050565b60006020820190508181036000830152613d0981613790565b9050919050565b60006020820190508181036000830152613d29816137b3565b9050919050565b60006020820190508181036000830152613d49816137d6565b9050919050565b60006020820190508181036000830152613d69816137f9565b9050919050565b60006020820190508181036000830152613d898161381c565b9050919050565b60006020820190508181036000830152613da98161383f565b9050919050565b60006020820190508181036000830152613dc981613862565b9050919050565b60006020820190508181036000830152613de981613885565b9050919050565b60006020820190508181036000830152613e09816138a8565b9050919050565b60006020820190508181036000830152613e29816138cb565b9050919050565b60006020820190508181036000830152613e49816138ee565b9050919050565b60006020820190508181036000830152613e6981613911565b9050919050565b60006020820190508181036000830152613e8981613934565b9050919050565b60006020820190508181036000830152613ea981613957565b9050919050565b60006020820190508181036000830152613ec98161397a565b9050919050565b60006020820190508181036000830152613ee98161399d565b9050919050565b60006020820190508181036000830152613f09816139c0565b9050919050565b60006020820190508181036000830152613f29816139e3565b9050919050565b60006020820190508181036000830152613f4981613a06565b9050919050565b60006020820190508181036000830152613f6981613a29565b9050919050565b60006020820190508181036000830152613f8981613a4c565b9050919050565b60006020820190508181036000830152613fa981613a6f565b9050919050565b60006020820190508181036000830152613fc981613a92565b9050919050565b60006020820190508181036000830152613fe981613ab5565b9050919050565b6000602082019050818103600083015261400981613afb565b9050919050565b6000602082019050818103600083015261402981613b1e565b9050919050565b6000602082019050818103600083015261404981613b41565b9050919050565b6000602082019050818103600083015261406981613b64565b9050919050565b60006020820190506140856000830184613b87565b92915050565b60006140956140a6565b90506140a182826142fb565b919050565b6000604051905090565b600067ffffffffffffffff8211156140cb576140ca614433565b5b6140d482614462565b9050602081019050919050565b600081519050919050565b600081519050919050565b600082825260208201905092915050565b600081905092915050565b600082825260208201905092915050565b600081905092915050565b600061413a8261425e565b91506141458361425e565b9250827fffffffffffffffffffffffffffffffffffffffffffffffffffffffffffffffff0382111561417a576141796143a6565b5b828201905092915050565b60006141908261425e565b915061419b8361425e565b9250826141ab576141aa6143d5565b5b828204905092915050565b60006141c18261425e565b91506141cc8361425e565b9250828210156141df576141de6143a6565b5b828203905092915050565b60006141f58261423e565b9050919050565b60008115159050919050565b6000819050919050565b60007fffffffff0000000000000000000000000000000000000000000000000000000082169050919050565b600073ffffffffffffffffffffffffffffffffffffffff82169050919050565b6000819050919050565b600060ff82169050919050565b600061428082614268565b9050919050565b82818337600083830152505050565b60005b838110156142b4578082015181840152602081019050614299565b838111156142c3576000848401525b50505050565b600060028204905060018216806142e157607f821691505b602082108114156142f5576142f4614404565b5b50919050565b61430482614462565b810181811067ffffffffffffffff8211171561432357614322614433565b5b80604052505050565b60006143378261425e565b91507fffffffffffffffffffffffffffffffffffffffffffffffffffffffffffffffff82141561436a576143696143a6565b5b600182019050919050565b60006143808261425e565b915061438b8361425e565b92508261439b5761439a6143d5565b5b828206905092915050565b7f4e487b7100000000000000000000000000000000000000000000000000000000600052601160045260246000fd5b7f4e487b7100000000000000000000000000000000000000000000000000000000600052601260045260246000fd5b7f4e487b7100000000000000000000000000000000000000000000000000000000600052602260045260246000fd5b7f4e487b7100000000000000000000000000000000000000000000000000000000600052604160045260246000fd5b6000601f19601f8301169050919050565b7f455243373231456e756d657261626c653a206f776e657220696e646578206f7560008201527f74206f6620626f756e6473000000000000000000000000000000000000000000602082015250565b7f4552433732313a207472616e7366657220746f206e6f6e20455243373231526560008201527f63656976657220696d706c656d656e7465720000000000000000000000000000602082015250565b7f4e6f20616d6f756e74206c65667420746f207769746864726177000000000000600082015250565b7f4f776e61626c653a206e6577206f776e657220697320746865207a65726f206160008201527f6464726573730000000000000000000000000000000000000000000000000000602082015250565b7f4552433732313a207472616e736665722066726f6d20696e636f72726563742060008201527f6f776e6572000000000000000000000000000000000000000000000000000000602082015250565b7f4552433732313a20746f6b656e20616c7265616479206d696e74656400000000600082015250565b7f46756e6374696f6e206d7573742062652063616c6c6564207468726f7567682060008201527f64656c656761746563616c6c0000000000000000000000000000000000000000602082015250565b7f4552433732313a207472616e7366657220746f20746865207a65726f2061646460008201527f7265737300000000000000000000000000000000000000000000000000000000602082015250565b7f4552433732313a20617070726f766520746f2063616c6c657200000000000000600082015250565b7f546f6b656e206973206d696e7465640000000000000000000000000000000000600082015250565b7f46756e6374696f6e206d7573742062652063616c6c6564207468726f7567682060008201527f6163746976652070726f78790000000000000000000000000000000000000000602082015250565b7f555550535570677261646561626c653a206d757374206e6f742062652063616c60008201527f6c6564207468726f7567682064656c656761746563616c6c0000000000000000602082015250565b7f4552433732313a2061646472657373207a65726f206973206e6f74206120766160008201527f6c6964206f776e65720000000000000000000000000000000000000000000000602082015250565b7f45524331393637557067726164653a20756e737570706f727465642070726f7860008201527f6961626c65555549440000000000000000000000000000000000000000000000602082015250565b7f496e697469616c697a61626c653a20636f6e747261637420697320616c72656160008201527f647920696e697469616c697a6564000000000000000000000000000000000000602082015250565b7f4552433732313a20617070726f76652063616c6c6572206973206e6f7420746f60008201527f6b656e206f776e6572206e6f7220617070726f76656420666f7220616c6c0000602082015250565b7f4552433732313a206d696e7420746f20746865207a65726f2061646472657373600082015250565b7f45524331393637557067726164653a206e657720696d706c656d656e7461746960008201527f6f6e206973206e6f742055555053000000000000000000000000000000000000602082015250565b7f455243313936373a206e657720696d706c656d656e746174696f6e206973206e60008201527f6f74206120636f6e747261637400000000000000000000000000000000000000602082015250565b7f4f776e61626c653a2063616c6c6572206973206e6f7420746865206f776e6572600082015250565b7f4552433732313a20696e76616c696420746f6b656e2049440000000000000000600082015250565b7f4552433732313a20617070726f76616c20746f2063757272656e74206f776e6560008201527f7200000000000000000000000000000000000000000000000000000000000000602082015250565b7f416464726573733a2064656c65676174652063616c6c20746f206e6f6e2d636f60008201527f6e74726163740000000000000000000000000000000000000000000000000000602082015250565b7f4e65656420746f2073656e64206d6f7265204d41544943000000000000000000600082015250565b50565b7f455243373231456e756d657261626c653a20676c6f62616c20696e646578206f60008201527f7574206f6620626f756e64730000000000000000000000000000000000000000602082015250565b7f496e697469616c697a61626c653a20636f6e7472616374206973206e6f74206960008201527f6e697469616c697a696e67000000000000000000000000000000000000000000602082015250565b7f4552433732313a2063616c6c6572206973206e6f7420746f6b656e206f776e6560008201527f72206e6f7220617070726f766564000000000000000000000000000000000000602082015250565b7f5769746864726177616c206661696c6564000000000000000000000000000000600082015250565b614bcd816141ea565b8114614bd857600080fd5b50565b614be4816141fc565b8114614bef57600080fd5b50565b614bfb81614208565b8114614c0657600080fd5b50565b614c1281614212565b8114614c1d57600080fd5b50565b614c298161425e565b8114614c3457600080fd5b5056fe416464726573733a206c6f772d6c6576656c2064656c65676174652063616c6c206661696c656468747470733a2f2f73746167696e672d746f70736576656e2e7765622e6170702f6d6574612fa26469706673582212200f09d5df086a4be5e8de3d47189ff7338d37c50cbecd04fdf6e4d56b35aef42264736f6c63430008040033",
  "linkReferences": {},
  "deployedLinkReferences": {}
}