{
  "_format": "hh-sol-artifact-1",
  "contractName": "TopSevenPlayer",
  "sourceName": "contracts/TopSevenPlayer.sol",
  "abi": [
    {
      "inputs": [],
      "stateMutability": "nonpayable",
      "type": "constructor"
    },
    {
      "anonymous": false,
      "inputs": [
        {
          "indexed": false,
          "internalType": "address",
          "name": "previousAdmin",
          "type": "address"
        },
        {
          "indexed": false,
          "internalType": "address",
          "name": "newAdmin",
          "type": "address"
        }
      ],
      "name": "AdminChanged",
      "type": "event"
    },
    {
      "anonymous": false,
      "inputs": [
        {
          "indexed": true,
          "internalType": "address",
          "name": "account",
          "type": "address"
        },
        {
          "indexed": true,
          "internalType": "address",
          "name": "operator",
          "type": "address"
        },
        {
          "indexed": false,
          "internalType": "bool",
          "name": "approved",
          "type": "bool"
        }
      ],
      "name": "ApprovalForAll",
      "type": "event"
    },
    {
      "anonymous": false,
      "inputs": [
        {
          "indexed": true,
          "internalType": "address",
          "name": "beacon",
          "type": "address"
        }
      ],
      "name": "BeaconUpgraded",
      "type": "event"
    },
    {
      "anonymous": false,
      "inputs": [
        {
          "indexed": false,
          "internalType": "uint8",
          "name": "version",
          "type": "uint8"
        }
      ],
      "name": "Initialized",
      "type": "event"
    },
    {
      "anonymous": false,
      "inputs": [
        {
          "indexed": false,
          "internalType": "address",
          "name": "account",
          "type": "address"
        }
      ],
      "name": "Paused",
      "type": "event"
    },
    {
      "anonymous": false,
      "inputs": [
        {
          "indexed": true,
          "internalType": "bytes32",
          "name": "role",
          "type": "bytes32"
        },
        {
          "indexed": true,
          "internalType": "bytes32",
          "name": "previousAdminRole",
          "type": "bytes32"
        },
        {
          "indexed": true,
          "internalType": "bytes32",
          "name": "newAdminRole",
          "type": "bytes32"
        }
      ],
      "name": "RoleAdminChanged",
      "type": "event"
    },
    {
      "anonymous": false,
      "inputs": [
        {
          "indexed": true,
          "internalType": "bytes32",
          "name": "role",
          "type": "bytes32"
        },
        {
          "indexed": true,
          "internalType": "address",
          "name": "account",
          "type": "address"
        },
        {
          "indexed": true,
          "internalType": "address",
          "name": "sender",
          "type": "address"
        }
      ],
      "name": "RoleGranted",
      "type": "event"
    },
    {
      "anonymous": false,
      "inputs": [
        {
          "indexed": true,
          "internalType": "bytes32",
          "name": "role",
          "type": "bytes32"
        },
        {
          "indexed": true,
          "internalType": "address",
          "name": "account",
          "type": "address"
        },
        {
          "indexed": true,
          "internalType": "address",
          "name": "sender",
          "type": "address"
        }
      ],
      "name": "RoleRevoked",
      "type": "event"
    },
    {
      "anonymous": false,
      "inputs": [
        {
          "indexed": true,
          "internalType": "address",
          "name": "operator",
          "type": "address"
        },
        {
          "indexed": true,
          "internalType": "address",
          "name": "from",
          "type": "address"
        },
        {
          "indexed": true,
          "internalType": "address",
          "name": "to",
          "type": "address"
        },
        {
          "indexed": false,
          "internalType": "uint256[]",
          "name": "ids",
          "type": "uint256[]"
        },
        {
          "indexed": false,
          "internalType": "uint256[]",
          "name": "values",
          "type": "uint256[]"
        }
      ],
      "name": "TransferBatch",
      "type": "event"
    },
    {
      "anonymous": false,
      "inputs": [
        {
          "indexed": true,
          "internalType": "address",
          "name": "operator",
          "type": "address"
        },
        {
          "indexed": true,
          "internalType": "address",
          "name": "from",
          "type": "address"
        },
        {
          "indexed": true,
          "internalType": "address",
          "name": "to",
          "type": "address"
        },
        {
          "indexed": false,
          "internalType": "uint256",
          "name": "id",
          "type": "uint256"
        },
        {
          "indexed": false,
          "internalType": "uint256",
          "name": "value",
          "type": "uint256"
        }
      ],
      "name": "TransferSingle",
      "type": "event"
    },
    {
      "anonymous": false,
      "inputs": [
        {
          "indexed": false,
          "internalType": "string",
          "name": "value",
          "type": "string"
        },
        {
          "indexed": true,
          "internalType": "uint256",
          "name": "id",
          "type": "uint256"
        }
      ],
      "name": "URI",
      "type": "event"
    },
    {
      "anonymous": false,
      "inputs": [
        {
          "indexed": false,
          "internalType": "address",
          "name": "account",
          "type": "address"
        }
      ],
      "name": "Unpaused",
      "type": "event"
    },
    {
      "anonymous": false,
      "inputs": [
        {
          "indexed": true,
          "internalType": "address",
          "name": "implementation",
          "type": "address"
        }
      ],
      "name": "Upgraded",
      "type": "event"
    },
    {
      "inputs": [],
      "name": "DEFAULT_ADMIN_ROLE",
      "outputs": [
        {
          "internalType": "bytes32",
          "name": "",
          "type": "bytes32"
        }
      ],
      "stateMutability": "view",
      "type": "function"
    },
    {
      "inputs": [],
      "name": "MINTER_ROLE",
      "outputs": [
        {
          "internalType": "bytes32",
          "name": "",
          "type": "bytes32"
        }
      ],
      "stateMutability": "view",
      "type": "function"
    },
    {
      "inputs": [],
      "name": "PAUSER_ROLE",
      "outputs": [
        {
          "internalType": "bytes32",
          "name": "",
          "type": "bytes32"
        }
      ],
      "stateMutability": "view",
      "type": "function"
    },
    {
      "inputs": [],
      "name": "UPGRADER_ROLE",
      "outputs": [
        {
          "internalType": "bytes32",
          "name": "",
          "type": "bytes32"
        }
      ],
      "stateMutability": "view",
      "type": "function"
    },
    {
      "inputs": [
        {
          "internalType": "address",
          "name": "account",
          "type": "address"
        },
        {
          "internalType": "uint256",
          "name": "id",
          "type": "uint256"
        }
      ],
      "name": "balanceOf",
      "outputs": [
        {
          "internalType": "uint256",
          "name": "",
          "type": "uint256"
        }
      ],
      "stateMutability": "view",
      "type": "function"
    },
    {
      "inputs": [
        {
          "internalType": "address[]",
          "name": "accounts",
          "type": "address[]"
        },
        {
          "internalType": "uint256[]",
          "name": "ids",
          "type": "uint256[]"
        }
      ],
      "name": "balanceOfBatch",
      "outputs": [
        {
          "internalType": "uint256[]",
          "name": "",
          "type": "uint256[]"
        }
      ],
      "stateMutability": "view",
      "type": "function"
    },
    {
      "inputs": [
        {
          "internalType": "address",
          "name": "account",
          "type": "address"
        },
        {
          "internalType": "uint256",
          "name": "id",
          "type": "uint256"
        },
        {
          "internalType": "uint256",
          "name": "value",
          "type": "uint256"
        }
      ],
      "name": "burn",
      "outputs": [],
      "stateMutability": "nonpayable",
      "type": "function"
    },
    {
      "inputs": [
        {
          "internalType": "address",
          "name": "account",
          "type": "address"
        },
        {
          "internalType": "uint256[]",
          "name": "ids",
          "type": "uint256[]"
        },
        {
          "internalType": "uint256[]",
          "name": "values",
          "type": "uint256[]"
        }
      ],
      "name": "burnBatch",
      "outputs": [],
      "stateMutability": "nonpayable",
      "type": "function"
    },
    {
      "inputs": [
        {
          "internalType": "uint256",
          "name": "id",
          "type": "uint256"
        }
      ],
      "name": "exists",
      "outputs": [
        {
          "internalType": "bool",
          "name": "",
          "type": "bool"
        }
      ],
      "stateMutability": "view",
      "type": "function"
    },
    {
      "inputs": [
        {
          "internalType": "bytes32",
          "name": "role",
          "type": "bytes32"
        }
      ],
      "name": "getRoleAdmin",
      "outputs": [
        {
          "internalType": "bytes32",
          "name": "",
          "type": "bytes32"
        }
      ],
      "stateMutability": "view",
      "type": "function"
    },
    {
      "inputs": [
        {
          "internalType": "bytes32",
          "name": "role",
          "type": "bytes32"
        },
        {
          "internalType": "address",
          "name": "account",
          "type": "address"
        }
      ],
      "name": "grantRole",
      "outputs": [],
      "stateMutability": "nonpayable",
      "type": "function"
    },
    {
      "inputs": [
        {
          "internalType": "bytes32",
          "name": "role",
          "type": "bytes32"
        },
        {
          "internalType": "address",
          "name": "account",
          "type": "address"
        }
      ],
      "name": "hasRole",
      "outputs": [
        {
          "internalType": "bool",
          "name": "",
          "type": "bool"
        }
      ],
      "stateMutability": "view",
      "type": "function"
    },
    {
      "inputs": [],
      "name": "initialize",
      "outputs": [],
      "stateMutability": "nonpayable",
      "type": "function"
    },
    {
      "inputs": [
        {
          "internalType": "address",
          "name": "account",
          "type": "address"
        },
        {
          "internalType": "address",
          "name": "operator",
          "type": "address"
        }
      ],
      "name": "isApprovedForAll",
      "outputs": [
        {
          "internalType": "bool",
          "name": "",
          "type": "bool"
        }
      ],
      "stateMutability": "view",
      "type": "function"
    },
    {
      "inputs": [
        {
          "internalType": "address",
          "name": "account",
          "type": "address"
        },
        {
          "internalType": "uint256",
          "name": "id",
          "type": "uint256"
        },
        {
          "internalType": "uint256",
          "name": "amount",
          "type": "uint256"
        },
        {
          "internalType": "bytes",
          "name": "data",
          "type": "bytes"
        }
      ],
      "name": "mint",
      "outputs": [],
      "stateMutability": "nonpayable",
      "type": "function"
    },
    {
      "inputs": [
        {
          "internalType": "address",
          "name": "to",
          "type": "address"
        },
        {
          "internalType": "uint256[]",
          "name": "ids",
          "type": "uint256[]"
        },
        {
          "internalType": "uint256[]",
          "name": "amounts",
          "type": "uint256[]"
        },
        {
          "internalType": "bytes",
          "name": "data",
          "type": "bytes"
        }
      ],
      "name": "mintBatch",
      "outputs": [],
      "stateMutability": "nonpayable",
      "type": "function"
    },
    {
      "inputs": [],
      "name": "pause",
      "outputs": [],
      "stateMutability": "nonpayable",
      "type": "function"
    },
    {
      "inputs": [],
      "name": "paused",
      "outputs": [
        {
          "internalType": "bool",
          "name": "",
          "type": "bool"
        }
      ],
      "stateMutability": "view",
      "type": "function"
    },
    {
      "inputs": [],
      "name": "proxiableUUID",
      "outputs": [
        {
          "internalType": "bytes32",
          "name": "",
          "type": "bytes32"
        }
      ],
      "stateMutability": "view",
      "type": "function"
    },
    {
      "inputs": [
        {
          "internalType": "bytes32",
          "name": "role",
          "type": "bytes32"
        },
        {
          "internalType": "address",
          "name": "account",
          "type": "address"
        }
      ],
      "name": "renounceRole",
      "outputs": [],
      "stateMutability": "nonpayable",
      "type": "function"
    },
    {
      "inputs": [
        {
          "internalType": "bytes32",
          "name": "role",
          "type": "bytes32"
        },
        {
          "internalType": "address",
          "name": "account",
          "type": "address"
        }
      ],
      "name": "revokeRole",
      "outputs": [],
      "stateMutability": "nonpayable",
      "type": "function"
    },
    {
      "inputs": [
        {
          "internalType": "address",
          "name": "from",
          "type": "address"
        },
        {
          "internalType": "address",
          "name": "to",
          "type": "address"
        },
        {
          "internalType": "uint256[]",
          "name": "ids",
          "type": "uint256[]"
        },
        {
          "internalType": "uint256[]",
          "name": "amounts",
          "type": "uint256[]"
        },
        {
          "internalType": "bytes",
          "name": "data",
          "type": "bytes"
        }
      ],
      "name": "safeBatchTransferFrom",
      "outputs": [],
      "stateMutability": "nonpayable",
      "type": "function"
    },
    {
      "inputs": [
        {
          "internalType": "address",
          "name": "from",
          "type": "address"
        },
        {
          "internalType": "address",
          "name": "to",
          "type": "address"
        },
        {
          "internalType": "uint256",
          "name": "id",
          "type": "uint256"
        },
        {
          "internalType": "uint256",
          "name": "amount",
          "type": "uint256"
        },
        {
          "internalType": "bytes",
          "name": "data",
          "type": "bytes"
        }
      ],
      "name": "safeTransferFrom",
      "outputs": [],
      "stateMutability": "nonpayable",
      "type": "function"
    },
    {
      "inputs": [
        {
          "internalType": "address",
          "name": "operator",
          "type": "address"
        },
        {
          "internalType": "bool",
          "name": "approved",
          "type": "bool"
        }
      ],
      "name": "setApprovalForAll",
      "outputs": [],
      "stateMutability": "nonpayable",
      "type": "function"
    },
    {
      "inputs": [
        {
          "internalType": "bytes4",
          "name": "interfaceId",
          "type": "bytes4"
        }
      ],
      "name": "supportsInterface",
      "outputs": [
        {
          "internalType": "bool",
          "name": "",
          "type": "bool"
        }
      ],
      "stateMutability": "view",
      "type": "function"
    },
    {
      "inputs": [
        {
          "internalType": "uint256",
          "name": "id",
          "type": "uint256"
        }
      ],
      "name": "totalSupply",
      "outputs": [
        {
          "internalType": "uint256",
          "name": "",
          "type": "uint256"
        }
      ],
      "stateMutability": "view",
      "type": "function"
    },
    {
      "inputs": [],
      "name": "unpause",
      "outputs": [],
      "stateMutability": "nonpayable",
      "type": "function"
    },
    {
      "inputs": [
        {
          "internalType": "address",
          "name": "newImplementation",
          "type": "address"
        }
      ],
      "name": "upgradeTo",
      "outputs": [],
      "stateMutability": "nonpayable",
      "type": "function"
    },
    {
      "inputs": [
        {
          "internalType": "address",
          "name": "newImplementation",
          "type": "address"
        },
        {
          "internalType": "bytes",
          "name": "data",
          "type": "bytes"
        }
      ],
      "name": "upgradeToAndCall",
      "outputs": [],
      "stateMutability": "payable",
      "type": "function"
    },
    {
      "inputs": [
        {
          "internalType": "uint256",
          "name": "",
          "type": "uint256"
        }
      ],
      "name": "uri",
      "outputs": [
        {
          "internalType": "string",
          "name": "",
          "type": "string"
        }
      ],
      "stateMutability": "view",
      "type": "function"
    }
  ],
  "bytecode": "0x60a06040523073ffffffffffffffffffffffffffffffffffffffff1660809073ffffffffffffffffffffffffffffffffffffffff1660601b8152503480156200004757600080fd5b50620000586200005e60201b60201c565b62000209565b600060019054906101000a900460ff1615620000b1576040517f08c379a0000000000000000000000000000000000000000000000000000000008152600401620000a8906200015d565b60405180910390fd5b60ff801660008054906101000a900460ff1660ff161015620001235760ff6000806101000a81548160ff021916908360ff1602179055507f7f26b83ff96e1f2b6a682f133852f6798a09c465da95921460cefb384740249860ff6040516200011a91906200017f565b60405180910390a15b565b6000620001346027836200019c565b91506200014182620001ba565b604082019050919050565b6200015781620001ad565b82525050565b60006020820190508181036000830152620001788162000125565b9050919050565b60006020820190506200019660008301846200014c565b92915050565b600082825260208201905092915050565b600060ff82169050919050565b7f496e697469616c697a61626c653a20636f6e747261637420697320696e69746960008201527f616c697a696e6700000000000000000000000000000000000000000000000000602082015250565b60805160601c615feb6200024460003960008181610a3001528181610abf01528181610dc501528181610e540152610f180152615feb6000f3fe6080604052600436106101cc5760003560e01c80636b20c454116100f7578063bd85b03911610095578063e985e9c511610064578063e985e9c514610662578063f242432a1461069f578063f5298aca146106c8578063f72c0d8b146106f1576101cc565b8063bd85b039146105a6578063d5391393146105e3578063d547741f1461060e578063e63ab1e914610637576101cc565b80638456cb59116100d15780638456cb59146104fe57806391d1485414610515578063a217fddf14610552578063a22cb4651461057d576101cc565b80636b20c45414610495578063731133e9146104be5780638129fc1c146104e7576101cc565b806336568abe1161016f5780634f1ef2861161013e5780634f1ef286146103e65780634f558e791461040257806352d1902d1461043f5780635c975abb1461046a576101cc565b806336568abe146103405780633659cfe6146103695780633f4ba83a146103925780634e1273f4146103a9576101cc565b80631f7fdffa116101ab5780631f7fdffa14610288578063248a9ca3146102b15780632eb2c2d6146102ee5780632f2ff15d14610317576101cc565b8062fdd58e146101d157806301ffc9a71461020e5780630e89341c1461024b575b600080fd5b3480156101dd57600080fd5b506101f860048036038101906101f3919061449d565b61071c565b60405161020591906151ca565b60405180910390f35b34801561021a57600080fd5b506102356004803603810190610230919061469d565b6107e6565b6040516102429190614e17565b60405180910390f35b34801561025757600080fd5b50610272600480360381019061026d91906146ef565b6107f8565b60405161027f9190614e68565b60405180910390f35b34801561029457600080fd5b506102af60048036038101906102aa9190614362565b61088c565b005b3480156102bd57600080fd5b506102d860048036038101906102d3919061460f565b6108c9565b6040516102e59190614e32565b60405180910390f35b3480156102fa57600080fd5b5061031560048036038101906103109190614195565b6108e9565b005b34801561032357600080fd5b5061033e60048036038101906103399190614661565b61098a565b005b34801561034c57600080fd5b5061036760048036038101906103629190614661565b6109ab565b005b34801561037557600080fd5b50610390600480360381019061038b9190614130565b610a2e565b005b34801561039e57600080fd5b506103a7610bdd565b005b3480156103b557600080fd5b506103d060048036038101906103cb91906145a3565b610c12565b6040516103dd9190614dbe565b60405180910390f35b61040060048036038101906103fb9190614449565b610dc3565b005b34801561040e57600080fd5b50610429600480360381019061042491906146ef565b610f00565b6040516104369190614e17565b60405180910390f35b34801561044b57600080fd5b50610454610f14565b6040516104619190614e32565b60405180910390f35b34801561047657600080fd5b5061047f610fcd565b60405161048c9190614e17565b60405180910390f35b3480156104a157600080fd5b506104bc60048036038101906104b791906142e3565b610fe4565b005b3480156104ca57600080fd5b506104e560048036038101906104e09190614528565b611081565b005b3480156104f357600080fd5b506104fc6110be565b005b34801561050a57600080fd5b506105136112c8565b005b34801561052157600080fd5b5061053c60048036038101906105379190614661565b6112fd565b6040516105499190614e17565b60405180910390f35b34801561055e57600080fd5b50610567611368565b6040516105749190614e32565b60405180910390f35b34801561058957600080fd5b506105a4600480360381019061059f919061440d565b61136f565b005b3480156105b257600080fd5b506105cd60048036038101906105c891906146ef565b611385565b6040516105da91906151ca565b60405180910390f35b3480156105ef57600080fd5b506105f86113a3565b6040516106059190614e32565b60405180910390f35b34801561061a57600080fd5b5061063560048036038101906106309190614661565b6113c7565b005b34801561064357600080fd5b5061064c6113e8565b6040516106599190614e32565b60405180910390f35b34801561066e57600080fd5b5061068960048036038101906106849190614159565b61140c565b6040516106969190614e17565b60405180910390f35b3480156106ab57600080fd5b506106c660048036038101906106c19190614254565b6114a0565b005b3480156106d457600080fd5b506106ef60048036038101906106ea91906144d9565b611541565b005b3480156106fd57600080fd5b506107066115de565b6040516107139190614e32565b60405180910390f35b60008073ffffffffffffffffffffffffffffffffffffffff168373ffffffffffffffffffffffffffffffffffffffff16141561078d576040517f08c379a000000000000000000000000000000000000000000000000000000000815260040161078490614f6a565b60405180910390fd5b6065600083815260200190815260200160002060008473ffffffffffffffffffffffffffffffffffffffff1673ffffffffffffffffffffffffffffffffffffffff16815260200190815260200160002054905092915050565b60006107f182611602565b9050919050565b606060678054610807906154fc565b80601f0160208091040260200160405190810160405280929190818152602001828054610833906154fc565b80156108805780601f1061085557610100808354040283529160200191610880565b820191906000526020600020905b81548152906001019060200180831161086357829003601f168201915b50505050509050919050565b7f9f2df0fed2c77648de5860a4cc508cd0818c85b8b8a1ab4ceeef8d981c8956a66108b68161167c565b6108c285858585611690565b5050505050565b600060c96000838152602001908152602001600020600101549050919050565b6108f161190a565b73ffffffffffffffffffffffffffffffffffffffff168573ffffffffffffffffffffffffffffffffffffffff16148061093757506109368561093161190a565b61140c565b5b610976576040517f08c379a000000000000000000000000000000000000000000000000000000000815260040161096d90614eaa565b60405180910390fd5b6109838585858585611912565b5050505050565b610993826108c9565b61099c8161167c565b6109a68383611c83565b505050565b6109b361190a565b73ffffffffffffffffffffffffffffffffffffffff168173ffffffffffffffffffffffffffffffffffffffff1614610a20576040517f08c379a0000000000000000000000000000000000000000000000000000000008152600401610a17906151aa565b60405180910390fd5b610a2a8282611d64565b5050565b7f000000000000000000000000000000000000000000000000000000000000000073ffffffffffffffffffffffffffffffffffffffff163073ffffffffffffffffffffffffffffffffffffffff161415610abd576040517f08c379a0000000000000000000000000000000000000000000000000000000008152600401610ab490614f4a565b60405180910390fd5b7f000000000000000000000000000000000000000000000000000000000000000073ffffffffffffffffffffffffffffffffffffffff16610afc611e46565b73ffffffffffffffffffffffffffffffffffffffff1614610b52576040517f08c379a0000000000000000000000000000000000000000000000000000000008152600401610b4990614f8a565b60405180910390fd5b610b5b81611e9d565b610bda81600067ffffffffffffffff811115610ba0577f4e487b7100000000000000000000000000000000000000000000000000000000600052604160045260246000fd5b6040519080825280601f01601f191660200182016040528015610bd25781602001600182028036833780820191505090505b506000611ecb565b50565b7f65d7a28e3265b37a6474929f336521b332c1681b933f6cb9f3376673440d862a610c078161167c565b610c0f612048565b50565b60608151835114610c58576040517f08c379a0000000000000000000000000000000000000000000000000000000008152600401610c4f9061514a565b60405180910390fd5b6000835167ffffffffffffffff811115610c9b577f4e487b7100000000000000000000000000000000000000000000000000000000600052604160045260246000fd5b604051908082528060200260200182016040528015610cc95781602001602082028036833780820191505090505b50905060005b8451811015610db857610d62858281518110610d14577f4e487b7100000000000000000000000000000000000000000000000000000000600052603260045260246000fd5b6020026020010151858381518110610d55577f4e487b7100000000000000000000000000000000000000000000000000000000600052603260045260246000fd5b602002602001015161071c565b828281518110610d9b577f4e487b7100000000000000000000000000000000000000000000000000000000600052603260045260246000fd5b60200260200101818152505080610db19061555f565b9050610ccf565b508091505092915050565b7f000000000000000000000000000000000000000000000000000000000000000073ffffffffffffffffffffffffffffffffffffffff163073ffffffffffffffffffffffffffffffffffffffff161415610e52576040517f08c379a0000000000000000000000000000000000000000000000000000000008152600401610e4990614f4a565b60405180910390fd5b7f000000000000000000000000000000000000000000000000000000000000000073ffffffffffffffffffffffffffffffffffffffff16610e91611e46565b73ffffffffffffffffffffffffffffffffffffffff1614610ee7576040517f08c379a0000000000000000000000000000000000000000000000000000000008152600401610ede90614f8a565b60405180910390fd5b610ef082611e9d565b610efc82826001611ecb565b5050565b600080610f0c83611385565b119050919050565b60007f000000000000000000000000000000000000000000000000000000000000000073ffffffffffffffffffffffffffffffffffffffff163073ffffffffffffffffffffffffffffffffffffffff1614610fa4576040517f08c379a0000000000000000000000000000000000000000000000000000000008152600401610f9b90614faa565b60405180910390fd5b7f360894a13ba1a3210667c828492db98dca3e2076cc3735a920a3ca505d382bbc60001b905090565b6000609760009054906101000a900460ff16905090565b610fec61190a565b73ffffffffffffffffffffffffffffffffffffffff168373ffffffffffffffffffffffffffffffffffffffff16148061103257506110318361102c61190a565b61140c565b5b611071576040517f08c379a000000000000000000000000000000000000000000000000000000000815260040161106890614eaa565b60405180910390fd5b61107c8383836120ab565b505050565b7f9f2df0fed2c77648de5860a4cc508cd0818c85b8b8a1ab4ceeef8d981c8956a66110ab8161167c565b6110b7858585856123c8565b5050505050565b60008060019054906101000a900460ff161590508080156110ef5750600160008054906101000a900460ff1660ff16105b8061111c57506110fe3061257a565b15801561111b5750600160008054906101000a900460ff1660ff16145b5b61115b576040517f08c379a00000000000000000000000000000000000000000000000000000000081526004016111529061502a565b60405180910390fd5b60016000806101000a81548160ff021916908360ff1602179055508015611198576001600060016101000a81548160ff0219169083151502179055505b6111b96040518060600160405280602a8152602001615f8c602a913961259d565b6111c16125f8565b6111c9612651565b6111d16126a2565b6111d96126f3565b6111e1612744565b6111ee6000801b33611c83565b6112187f65d7a28e3265b37a6474929f336521b332c1681b933f6cb9f3376673440d862a33611c83565b6112427f9f2df0fed2c77648de5860a4cc508cd0818c85b8b8a1ab4ceeef8d981c8956a633611c83565b61126c7f189ab7a9244df0848122154315af71fe140f3db0fe014031783b0946b8c9d2e333611c83565b80156112c55760008060016101000a81548160ff0219169083151502179055507f7f26b83ff96e1f2b6a682f133852f6798a09c465da95921460cefb384740249860016040516112bc9190614e4d565b60405180910390a15b50565b7f65d7a28e3265b37a6474929f336521b332c1681b933f6cb9f3376673440d862a6112f28161167c565b6112fa612795565b50565b600060c9600084815260200190815260200160002060000160008373ffffffffffffffffffffffffffffffffffffffff1673ffffffffffffffffffffffffffffffffffffffff16815260200190815260200160002060009054906101000a900460ff16905092915050565b6000801b81565b61138161137a61190a565b83836127f8565b5050565b600061012d6000838152602001908152602001600020549050919050565b7f9f2df0fed2c77648de5860a4cc508cd0818c85b8b8a1ab4ceeef8d981c8956a681565b6113d0826108c9565b6113d98161167c565b6113e38383611d64565b505050565b7f65d7a28e3265b37a6474929f336521b332c1681b933f6cb9f3376673440d862a81565b6000606660008473ffffffffffffffffffffffffffffffffffffffff1673ffffffffffffffffffffffffffffffffffffffff16815260200190815260200160002060008373ffffffffffffffffffffffffffffffffffffffff1673ffffffffffffffffffffffffffffffffffffffff16815260200190815260200160002060009054906101000a900460ff16905092915050565b6114a861190a565b73ffffffffffffffffffffffffffffffffffffffff168573ffffffffffffffffffffffffffffffffffffffff1614806114ee57506114ed856114e861190a565b61140c565b5b61152d576040517f08c379a000000000000000000000000000000000000000000000000000000000815260040161152490614eaa565b60405180910390fd5b61153a8585858585612965565b5050505050565b61154961190a565b73ffffffffffffffffffffffffffffffffffffffff168373ffffffffffffffffffffffffffffffffffffffff16148061158f575061158e8361158961190a565b61140c565b5b6115ce576040517f08c379a00000000000000000000000000000000000000000000000000000000081526004016115c590614eaa565b60405180910390fd5b6115d9838383612c04565b505050565b7f189ab7a9244df0848122154315af71fe140f3db0fe014031783b0946b8c9d2e381565b60007f7965db0b000000000000000000000000000000000000000000000000000000007bffffffffffffffffffffffffffffffffffffffffffffffffffffffff1916827bffffffffffffffffffffffffffffffffffffffffffffffffffffffff19161480611675575061167482612e4d565b5b9050919050565b61168d8161168861190a565b612f2f565b50565b600073ffffffffffffffffffffffffffffffffffffffff168473ffffffffffffffffffffffffffffffffffffffff161415611700576040517f08c379a00000000000000000000000000000000000000000000000000000000081526004016116f79061518a565b60405180910390fd5b8151835114611744576040517f08c379a000000000000000000000000000000000000000000000000000000000815260040161173b9061516a565b60405180910390fd5b600061174e61190a565b905061175f81600087878787612fcc565b60005b8451811015611865578381815181106117a4577f4e487b7100000000000000000000000000000000000000000000000000000000600052603260045260246000fd5b6020026020010151606560008784815181106117e9577f4e487b7100000000000000000000000000000000000000000000000000000000600052603260045260246000fd5b6020026020010151815260200190815260200160002060008873ffffffffffffffffffffffffffffffffffffffff1673ffffffffffffffffffffffffffffffffffffffff168152602001908152602001600020600082825461184b9190615343565b92505081905550808061185d9061555f565b915050611762565b508473ffffffffffffffffffffffffffffffffffffffff16600073ffffffffffffffffffffffffffffffffffffffff168273ffffffffffffffffffffffffffffffffffffffff167f4a39dc06d4c0dbc64b70af90fd698a233a518aa5d07e595d983b8c0526c8f7fb87876040516118dd929190614de0565b60405180910390a46118f481600087878787612fea565b61190381600087878787612ff2565b5050505050565b600033905090565b8151835114611956576040517f08c379a000000000000000000000000000000000000000000000000000000000815260040161194d9061516a565b60405180910390fd5b600073ffffffffffffffffffffffffffffffffffffffff168473ffffffffffffffffffffffffffffffffffffffff1614156119c6576040517f08c379a00000000000000000000000000000000000000000000000000000000081526004016119bd90614fea565b60405180910390fd5b60006119d061190a565b90506119e0818787878787612fcc565b60005b8451811015611be0576000858281518110611a27577f4e487b7100000000000000000000000000000000000000000000000000000000600052603260045260246000fd5b602002602001015190506000858381518110611a6c577f4e487b7100000000000000000000000000000000000000000000000000000000600052603260045260246000fd5b6020026020010151905060006065600084815260200190815260200160002060008b73ffffffffffffffffffffffffffffffffffffffff1673ffffffffffffffffffffffffffffffffffffffff16815260200190815260200160002054905081811015611b0e576040517f08c379a0000000000000000000000000000000000000000000000000000000008152600401611b059061506a565b60405180910390fd5b8181036065600085815260200190815260200160002060008c73ffffffffffffffffffffffffffffffffffffffff1673ffffffffffffffffffffffffffffffffffffffff16815260200190815260200160002081905550816065600085815260200190815260200160002060008b73ffffffffffffffffffffffffffffffffffffffff1673ffffffffffffffffffffffffffffffffffffffff1681526020019081526020016000206000828254611bc59190615343565b9250508190555050505080611bd99061555f565b90506119e3565b508473ffffffffffffffffffffffffffffffffffffffff168673ffffffffffffffffffffffffffffffffffffffff168273ffffffffffffffffffffffffffffffffffffffff167f4a39dc06d4c0dbc64b70af90fd698a233a518aa5d07e595d983b8c0526c8f7fb8787604051611c57929190614de0565b60405180910390a4611c6d818787878787612fea565b611c7b818787878787612ff2565b505050505050565b611c8d82826112fd565b611d6057600160c9600084815260200190815260200160002060000160008373ffffffffffffffffffffffffffffffffffffffff1673ffffffffffffffffffffffffffffffffffffffff16815260200190815260200160002060006101000a81548160ff021916908315150217905550611d0561190a565b73ffffffffffffffffffffffffffffffffffffffff168173ffffffffffffffffffffffffffffffffffffffff16837f2f8788117e7eff1d82e926ec794901d17c78024a50270940304540a733656f0d60405160405180910390a45b5050565b611d6e82826112fd565b15611e4257600060c9600084815260200190815260200160002060000160008373ffffffffffffffffffffffffffffffffffffffff1673ffffffffffffffffffffffffffffffffffffffff16815260200190815260200160002060006101000a81548160ff021916908315150217905550611de761190a565b73ffffffffffffffffffffffffffffffffffffffff168173ffffffffffffffffffffffffffffffffffffffff16837ff6391f5c32d9c69d2a47ea670b442974b53935d1edc7fd64eb21e047a839171b60405160405180910390a45b5050565b6000611e747f360894a13ba1a3210667c828492db98dca3e2076cc3735a920a3ca505d382bbc60001b6131d9565b60000160009054906101000a900473ffffffffffffffffffffffffffffffffffffffff16905090565b7f189ab7a9244df0848122154315af71fe140f3db0fe014031783b0946b8c9d2e3611ec78161167c565b5050565b611ef77f4910fdfa16fed3260ed0e7147f7cc6da11a60208b5b9406d12a635614ffd914360001b6131e3565b60000160009054906101000a900460ff1615611f1b57611f16836131ed565b612043565b8273ffffffffffffffffffffffffffffffffffffffff166352d1902d6040518163ffffffff1660e01b815260040160206040518083038186803b158015611f6157600080fd5b505afa925050508015611f9257506040513d601f19601f82011682018060405250810190611f8f9190614638565b60015b611fd1576040517f08c379a0000000000000000000000000000000000000000000000000000000008152600401611fc89061508a565b60405180910390fd5b7f360894a13ba1a3210667c828492db98dca3e2076cc3735a920a3ca505d382bbc60001b8114612036576040517f08c379a000000000000000000000000000000000000000000000000000000000815260040161202d9061500a565b60405180910390fd5b506120428383836132a6565b5b505050565b6120506132d2565b6000609760006101000a81548160ff0219169083151502179055507f5db9ee0a495bf2e6ff9c91a7834c1ba4fdd244a5e8aa4e537bd38aeae4b073aa61209461190a565b6040516120a19190614ce1565b60405180910390a1565b600073ffffffffffffffffffffffffffffffffffffffff168373ffffffffffffffffffffffffffffffffffffffff16141561211b576040517f08c379a00000000000000000000000000000000000000000000000000000000081526004016121129061504a565b60405180910390fd5b805182511461215f576040517f08c379a00000000000000000000000000000000000000000000000000000000081526004016121569061516a565b60405180910390fd5b600061216961190a565b905061218981856000868660405180602001604052806000815250612fcc565b60005b83518110156123245760008482815181106121d0577f4e487b7100000000000000000000000000000000000000000000000000000000600052603260045260246000fd5b602002602001015190506000848381518110612215577f4e487b7100000000000000000000000000000000000000000000000000000000600052603260045260246000fd5b6020026020010151905060006065600084815260200190815260200160002060008973ffffffffffffffffffffffffffffffffffffffff1673ffffffffffffffffffffffffffffffffffffffff168152602001908152602001600020549050818110156122b7576040517f08c379a00000000000000000000000000000000000000000000000000000000081526004016122ae90614f2a565b60405180910390fd5b8181036065600085815260200190815260200160002060008a73ffffffffffffffffffffffffffffffffffffffff1673ffffffffffffffffffffffffffffffffffffffff16815260200190815260200160002081905550505050808061231c9061555f565b91505061218c565b50600073ffffffffffffffffffffffffffffffffffffffff168473ffffffffffffffffffffffffffffffffffffffff168273ffffffffffffffffffffffffffffffffffffffff167f4a39dc06d4c0dbc64b70af90fd698a233a518aa5d07e595d983b8c0526c8f7fb868660405161239c929190614de0565b60405180910390a46123c281856000868660405180602001604052806000815250612fea565b50505050565b600073ffffffffffffffffffffffffffffffffffffffff168473ffffffffffffffffffffffffffffffffffffffff161415612438576040517f08c379a000000000000000000000000000000000000000000000000000000000815260040161242f9061518a565b60405180910390fd5b600061244261190a565b9050600061244f8561331b565b9050600061245c8561331b565b905061246d83600089858589612fcc565b846065600088815260200190815260200160002060008973ffffffffffffffffffffffffffffffffffffffff1673ffffffffffffffffffffffffffffffffffffffff16815260200190815260200160002060008282546124cd9190615343565b925050819055508673ffffffffffffffffffffffffffffffffffffffff16600073ffffffffffffffffffffffffffffffffffffffff168473ffffffffffffffffffffffffffffffffffffffff167fc3d58168c5ae7397731d063d5bbf3d657854427343f4c083240f7aacaa2d0f62898960405161254b9291906151e5565b60405180910390a461256283600089858589612fea565b612571836000898989896133e1565b50505050505050565b6000808273ffffffffffffffffffffffffffffffffffffffff163b119050919050565b600060019054906101000a900460ff166125ec576040517f08c379a00000000000000000000000000000000000000000000000000000000081526004016125e39061510a565b60405180910390fd5b6125f5816135c8565b50565b600060019054906101000a900460ff16612647576040517f08c379a000000000000000000000000000000000000000000000000000000000815260040161263e9061510a565b60405180910390fd5b61264f613623565b565b600060019054906101000a900460ff166126a0576040517f08c379a00000000000000000000000000000000000000000000000000000000081526004016126979061510a565b60405180910390fd5b565b600060019054906101000a900460ff166126f1576040517f08c379a00000000000000000000000000000000000000000000000000000000081526004016126e89061510a565b60405180910390fd5b565b600060019054906101000a900460ff16612742576040517f08c379a00000000000000000000000000000000000000000000000000000000081526004016127399061510a565b60405180910390fd5b565b600060019054906101000a900460ff16612793576040517f08c379a000000000000000000000000000000000000000000000000000000000815260040161278a9061510a565b60405180910390fd5b565b61279d61368f565b6001609760006101000a81548160ff0219169083151502179055507f62e78cea01bee320cd4e420270b5ea74000d11b0c9f74754ebdbfc544b05a2586127e161190a565b6040516127ee9190614ce1565b60405180910390a1565b8173ffffffffffffffffffffffffffffffffffffffff168373ffffffffffffffffffffffffffffffffffffffff161415612867576040517f08c379a000000000000000000000000000000000000000000000000000000000815260040161285e9061512a565b60405180910390fd5b80606660008573ffffffffffffffffffffffffffffffffffffffff1673ffffffffffffffffffffffffffffffffffffffff16815260200190815260200160002060008473ffffffffffffffffffffffffffffffffffffffff1673ffffffffffffffffffffffffffffffffffffffff16815260200190815260200160002060006101000a81548160ff0219169083151502179055508173ffffffffffffffffffffffffffffffffffffffff168373ffffffffffffffffffffffffffffffffffffffff167f17307eab39ab6107e8899845ad3d59bd9653f200f220920489ca2b5937696c31836040516129589190614e17565b60405180910390a3505050565b600073ffffffffffffffffffffffffffffffffffffffff168473ffffffffffffffffffffffffffffffffffffffff1614156129d5576040517f08c379a00000000000000000000000000000000000000000000000000000000081526004016129cc90614fea565b60405180910390fd5b60006129df61190a565b905060006129ec8561331b565b905060006129f98561331b565b9050612a09838989858589612fcc565b60006065600088815260200190815260200160002060008a73ffffffffffffffffffffffffffffffffffffffff1673ffffffffffffffffffffffffffffffffffffffff16815260200190815260200160002054905085811015612aa1576040517f08c379a0000000000000000000000000000000000000000000000000000000008152600401612a989061506a565b60405180910390fd5b8581036065600089815260200190815260200160002060008b73ffffffffffffffffffffffffffffffffffffffff1673ffffffffffffffffffffffffffffffffffffffff16815260200190815260200160002081905550856065600089815260200190815260200160002060008a73ffffffffffffffffffffffffffffffffffffffff1673ffffffffffffffffffffffffffffffffffffffff1681526020019081526020016000206000828254612b589190615343565b925050819055508773ffffffffffffffffffffffffffffffffffffffff168973ffffffffffffffffffffffffffffffffffffffff168573ffffffffffffffffffffffffffffffffffffffff167fc3d58168c5ae7397731d063d5bbf3d657854427343f4c083240f7aacaa2d0f628a8a604051612bd59291906151e5565b60405180910390a4612beb848a8a86868a612fea565b612bf9848a8a8a8a8a6133e1565b505050505050505050565b600073ffffffffffffffffffffffffffffffffffffffff168373ffffffffffffffffffffffffffffffffffffffff161415612c74576040517f08c379a0000000000000000000000000000000000000000000000000000000008152600401612c6b9061504a565b60405180910390fd5b6000612c7e61190a565b90506000612c8b8461331b565b90506000612c988461331b565b9050612cb883876000858560405180602001604052806000815250612fcc565b60006065600087815260200190815260200160002060008873ffffffffffffffffffffffffffffffffffffffff1673ffffffffffffffffffffffffffffffffffffffff16815260200190815260200160002054905084811015612d50576040517f08c379a0000000000000000000000000000000000000000000000000000000008152600401612d4790614f2a565b60405180910390fd5b8481036065600088815260200190815260200160002060008973ffffffffffffffffffffffffffffffffffffffff1673ffffffffffffffffffffffffffffffffffffffff16815260200190815260200160002081905550600073ffffffffffffffffffffffffffffffffffffffff168773ffffffffffffffffffffffffffffffffffffffff168573ffffffffffffffffffffffffffffffffffffffff167fc3d58168c5ae7397731d063d5bbf3d657854427343f4c083240f7aacaa2d0f628989604051612e1e9291906151e5565b60405180910390a4612e4484886000868660405180602001604052806000815250612fea565b50505050505050565b60007fd9b67a26000000000000000000000000000000000000000000000000000000007bffffffffffffffffffffffffffffffffffffffffffffffffffffffff1916827bffffffffffffffffffffffffffffffffffffffffffffffffffffffff19161480612f1857507f0e89341c000000000000000000000000000000000000000000000000000000007bffffffffffffffffffffffffffffffffffffffffffffffffffffffff1916827bffffffffffffffffffffffffffffffffffffffffffffffffffffffff1916145b80612f285750612f27826136d9565b5b9050919050565b612f3982826112fd565b612fc857612f5e8173ffffffffffffffffffffffffffffffffffffffff166014613743565b612f6c8360001c6020613743565b604051602001612f7d929190614ca7565b6040516020818303038152906040526040517f08c379a0000000000000000000000000000000000000000000000000000000008152600401612fbf9190614e68565b60405180910390fd5b5050565b612fd461368f565b612fe2868686868686613a3d565b505050505050565b505050505050565b6130118473ffffffffffffffffffffffffffffffffffffffff1661257a565b156131d1578373ffffffffffffffffffffffffffffffffffffffff1663bc197c8187878686866040518663ffffffff1660e01b8152600401613057959493929190614cfc565b602060405180830381600087803b15801561307157600080fd5b505af19250505080156130a257506040513d601f19601f8201168201806040525081019061309f91906146c6565b60015b613148576130ae615635565b806308c379a0141561310b57506130c3615e5b565b806130ce575061310d565b806040517f08c379a00000000000000000000000000000000000000000000000000000000081526004016131029190614e68565b60405180910390fd5b505b6040517f08c379a000000000000000000000000000000000000000000000000000000000815260040161313f90614e8a565b60405180910390fd5b63bc197c8160e01b7bffffffffffffffffffffffffffffffffffffffffffffffffffffffff1916817bffffffffffffffffffffffffffffffffffffffffffffffffffffffff1916146131cf576040517f08c379a00000000000000000000000000000000000000000000000000000000081526004016131c690614eea565b60405180910390fd5b505b505050505050565b6000819050919050565b6000819050919050565b6131f68161257a565b613235576040517f08c379a000000000000000000000000000000000000000000000000000000000815260040161322c906150aa565b60405180910390fd5b806132627f360894a13ba1a3210667c828492db98dca3e2076cc3735a920a3ca505d382bbc60001b6131d9565b60000160006101000a81548173ffffffffffffffffffffffffffffffffffffffff021916908373ffffffffffffffffffffffffffffffffffffffff16021790555050565b6132af83613caa565b6000825111806132bc5750805b156132cd576132cb8383613cf9565b505b505050565b6132da610fcd565b613319576040517f08c379a000000000000000000000000000000000000000000000000000000000815260040161331090614f0a565b60405180910390fd5b565b60606000600167ffffffffffffffff811115613360577f4e487b7100000000000000000000000000000000000000000000000000000000600052604160045260246000fd5b60405190808252806020026020018201604052801561338e5781602001602082028036833780820191505090505b50905082816000815181106133cc577f4e487b7100000000000000000000000000000000000000000000000000000000600052603260045260246000fd5b60200260200101818152505080915050919050565b6134008473ffffffffffffffffffffffffffffffffffffffff1661257a565b156135c0578373ffffffffffffffffffffffffffffffffffffffff1663f23a6e6187878686866040518663ffffffff1660e01b8152600401613446959493929190614d64565b602060405180830381600087803b15801561346057600080fd5b505af192505050801561349157506040513d601f19601f8201168201806040525081019061348e91906146c6565b60015b6135375761349d615635565b806308c379a014156134fa57506134b2615e5b565b806134bd57506134fc565b806040517f08c379a00000000000000000000000000000000000000000000000000000000081526004016134f19190614e68565b60405180910390fd5b505b6040517f08c379a000000000000000000000000000000000000000000000000000000000815260040161352e90614e8a565b60405180910390fd5b63f23a6e6160e01b7bffffffffffffffffffffffffffffffffffffffffffffffffffffffff1916817bffffffffffffffffffffffffffffffffffffffffffffffffffffffff1916146135be576040517f08c379a00000000000000000000000000000000000000000000000000000000081526004016135b590614eea565b60405180910390fd5b505b505050505050565b600060019054906101000a900460ff16613617576040517f08c379a000000000000000000000000000000000000000000000000000000000815260040161360e9061510a565b60405180910390fd5b61362081613ddd565b50565b600060019054906101000a900460ff16613672576040517f08c379a00000000000000000000000000000000000000000000000000000000081526004016136699061510a565b60405180910390fd5b6000609760006101000a81548160ff021916908315150217905550565b613697610fcd565b156136d7576040517f08c379a00000000000000000000000000000000000000000000000000000000081526004016136ce90614fca565b60405180910390fd5b565b60007f01ffc9a7000000000000000000000000000000000000000000000000000000007bffffffffffffffffffffffffffffffffffffffffffffffffffffffff1916827bffffffffffffffffffffffffffffffffffffffffffffffffffffffff1916149050919050565b6060600060028360026137569190615399565b6137609190615343565b67ffffffffffffffff81111561379f577f4e487b7100000000000000000000000000000000000000000000000000000000600052604160045260246000fd5b6040519080825280601f01601f1916602001820160405280156137d15781602001600182028036833780820191505090505b5090507f30000000000000000000000000000000000000000000000000000000000000008160008151811061382f577f4e487b7100000000000000000000000000000000000000000000000000000000600052603260045260246000fd5b60200101907effffffffffffffffffffffffffffffffffffffffffffffffffffffffffffff1916908160001a9053507f7800000000000000000000000000000000000000000000000000000000000000816001815181106138b9577f4e487b7100000000000000000000000000000000000000000000000000000000600052603260045260246000fd5b60200101907effffffffffffffffffffffffffffffffffffffffffffffffffffffffffffff1916908160001a905350600060018460026138f99190615399565b6139039190615343565b90505b60018111156139ef577f3031323334353637383961626364656600000000000000000000000000000000600f86166010811061396b577f4e487b7100000000000000000000000000000000000000000000000000000000600052603260045260246000fd5b1a60f81b8282815181106139a8577f4e487b7100000000000000000000000000000000000000000000000000000000600052603260045260246000fd5b60200101907effffffffffffffffffffffffffffffffffffffffffffffffffffffffffffff1916908160001a905350600485901c9450806139e8906154d2565b9050613906565b5060008414613a33576040517f08c379a0000000000000000000000000000000000000000000000000000000008152600401613a2a90614eca565b60405180910390fd5b8091505092915050565b613a4b868686868686613df7565b600073ffffffffffffffffffffffffffffffffffffffff168573ffffffffffffffffffffffffffffffffffffffff161415613b4a5760005b8351811015613b4857828181518110613ac5577f4e487b7100000000000000000000000000000000000000000000000000000000600052603260045260246000fd5b602002602001015161012d6000868481518110613b0b577f4e487b7100000000000000000000000000000000000000000000000000000000600052603260045260246000fd5b602002602001015181526020019081526020016000206000828254613b309190615343565b9250508190555080613b419061555f565b9050613a83565b505b600073ffffffffffffffffffffffffffffffffffffffff168473ffffffffffffffffffffffffffffffffffffffff161415613ca25760005b8351811015613ca0576000848281518110613bc6577f4e487b7100000000000000000000000000000000000000000000000000000000600052603260045260246000fd5b602002602001015190506000848381518110613c0b577f4e487b7100000000000000000000000000000000000000000000000000000000600052603260045260246000fd5b60200260200101519050600061012d600084815260200190815260200160002054905081811015613c71576040517f08c379a0000000000000000000000000000000000000000000000000000000008152600401613c68906150ca565b60405180910390fd5b81810361012d60008581526020019081526020016000208190555050505080613c999061555f565b9050613b82565b505b505050505050565b613cb3816131ed565b8073ffffffffffffffffffffffffffffffffffffffff167fbc7cd75a20ee27fd9adebab32041f755214dbc6bffa90cc0225b39da2e5c2d3b60405160405180910390a250565b6060613d048361257a565b613d43576040517f08c379a0000000000000000000000000000000000000000000000000000000008152600401613d3a906150ea565b60405180910390fd5b6000808473ffffffffffffffffffffffffffffffffffffffff1684604051613d6b9190614c90565b600060405180830381855af49150503d8060008114613da6576040519150601f19603f3d011682016040523d82523d6000602084013e613dab565b606091505b5091509150613dd38282604051806060016040528060278152602001615f6560279139613dff565b9250505092915050565b8060679080519060200190613df3929190613e66565b5050565b505050505050565b60608315613e0f57829050613e5f565b600083511115613e225782518084602001fd5b816040517f08c379a0000000000000000000000000000000000000000000000000000000008152600401613e569190614e68565b60405180910390fd5b9392505050565b828054613e72906154fc565b90600052602060002090601f016020900481019282613e945760008555613edb565b82601f10613ead57805160ff1916838001178555613edb565b82800160010185558215613edb579182015b82811115613eda578251825591602001919060010190613ebf565b5b509050613ee89190613eec565b5090565b5b80821115613f05576000816000905550600101613eed565b5090565b6000613f1c613f1784615233565b61520e565b90508083825260208201905082856020860282011115613f3b57600080fd5b60005b85811015613f6b5781613f51888261401f565b845260208401935060208301925050600181019050613f3e565b5050509392505050565b6000613f88613f838461525f565b61520e565b90508083825260208201905082856020860282011115613fa757600080fd5b60005b85811015613fd75781613fbd888261411b565b845260208401935060208301925050600181019050613faa565b5050509392505050565b6000613ff4613fef8461528b565b61520e565b90508281526020810184848401111561400c57600080fd5b614017848285615490565b509392505050565b60008135905061402e81615ef1565b92915050565b600082601f83011261404557600080fd5b8135614055848260208601613f09565b91505092915050565b600082601f83011261406f57600080fd5b813561407f848260208601613f75565b91505092915050565b60008135905061409781615f08565b92915050565b6000813590506140ac81615f1f565b92915050565b6000815190506140c181615f1f565b92915050565b6000813590506140d681615f36565b92915050565b6000815190506140eb81615f36565b92915050565b600082601f83011261410257600080fd5b8135614112848260208601613fe1565b91505092915050565b60008135905061412a81615f4d565b92915050565b60006020828403121561414257600080fd5b60006141508482850161401f565b91505092915050565b6000806040838503121561416c57600080fd5b600061417a8582860161401f565b925050602061418b8582860161401f565b9150509250929050565b600080600080600060a086880312156141ad57600080fd5b60006141bb8882890161401f565b95505060206141cc8882890161401f565b945050604086013567ffffffffffffffff8111156141e957600080fd5b6141f58882890161405e565b935050606086013567ffffffffffffffff81111561421257600080fd5b61421e8882890161405e565b925050608086013567ffffffffffffffff81111561423b57600080fd5b614247888289016140f1565b9150509295509295909350565b600080600080600060a0868803121561426c57600080fd5b600061427a8882890161401f565b955050602061428b8882890161401f565b945050604061429c8882890161411b565b93505060606142ad8882890161411b565b925050608086013567ffffffffffffffff8111156142ca57600080fd5b6142d6888289016140f1565b9150509295509295909350565b6000806000606084860312156142f857600080fd5b60006143068682870161401f565b935050602084013567ffffffffffffffff81111561432357600080fd5b61432f8682870161405e565b925050604084013567ffffffffffffffff81111561434c57600080fd5b6143588682870161405e565b9150509250925092565b6000806000806080858703121561437857600080fd5b60006143868782880161401f565b945050602085013567ffffffffffffffff8111156143a357600080fd5b6143af8782880161405e565b935050604085013567ffffffffffffffff8111156143cc57600080fd5b6143d88782880161405e565b925050606085013567ffffffffffffffff8111156143f557600080fd5b614401878288016140f1565b91505092959194509250565b6000806040838503121561442057600080fd5b600061442e8582860161401f565b925050602061443f85828601614088565b9150509250929050565b6000806040838503121561445c57600080fd5b600061446a8582860161401f565b925050602083013567ffffffffffffffff81111561448757600080fd5b614493858286016140f1565b9150509250929050565b600080604083850312156144b057600080fd5b60006144be8582860161401f565b92505060206144cf8582860161411b565b9150509250929050565b6000806000606084860312156144ee57600080fd5b60006144fc8682870161401f565b935050602061450d8682870161411b565b925050604061451e8682870161411b565b9150509250925092565b6000806000806080858703121561453e57600080fd5b600061454c8782880161401f565b945050602061455d8782880161411b565b935050604061456e8782880161411b565b925050606085013567ffffffffffffffff81111561458b57600080fd5b614597878288016140f1565b91505092959194509250565b600080604083850312156145b657600080fd5b600083013567ffffffffffffffff8111156145d057600080fd5b6145dc85828601614034565b925050602083013567ffffffffffffffff8111156145f957600080fd5b6146058582860161405e565b9150509250929050565b60006020828403121561462157600080fd5b600061462f8482850161409d565b91505092915050565b60006020828403121561464a57600080fd5b6000614658848285016140b2565b91505092915050565b6000806040838503121561467457600080fd5b60006146828582860161409d565b92505060206146938582860161401f565b9150509250929050565b6000602082840312156146af57600080fd5b60006146bd848285016140c7565b91505092915050565b6000602082840312156146d857600080fd5b60006146e6848285016140dc565b91505092915050565b60006020828403121561470157600080fd5b600061470f8482850161411b565b91505092915050565b60006147248383614c72565b60208301905092915050565b614739816153f3565b82525050565b600061474a826152cc565b61475481856152fa565b935061475f836152bc565b8060005b838110156147905781516147778882614718565b9750614782836152ed565b925050600181019050614763565b5085935050505092915050565b6147a681615405565b82525050565b6147b581615411565b82525050565b60006147c6826152d7565b6147d0818561530b565b93506147e081856020860161549f565b6147e981615657565b840191505092915050565b60006147ff826152d7565b614809818561531c565b935061481981856020860161549f565b80840191505092915050565b61482e8161547e565b82525050565b600061483f826152e2565b6148498185615327565b935061485981856020860161549f565b61486281615657565b840191505092915050565b6000614878826152e2565b6148828185615338565b935061489281856020860161549f565b80840191505092915050565b60006148ab603483615327565b91506148b682615675565b604082019050919050565b60006148ce602f83615327565b91506148d9826156c4565b604082019050919050565b60006148f1602083615327565b91506148fc82615713565b602082019050919050565b6000614914602883615327565b915061491f8261573c565b604082019050919050565b6000614937601483615327565b91506149428261578b565b602082019050919050565b600061495a602483615327565b9150614965826157b4565b604082019050919050565b600061497d602c83615327565b915061498882615803565b604082019050919050565b60006149a0602a83615327565b91506149ab82615852565b604082019050919050565b60006149c3602c83615327565b91506149ce826158a1565b604082019050919050565b60006149e6603883615327565b91506149f1826158f0565b604082019050919050565b6000614a09601083615327565b9150614a148261593f565b602082019050919050565b6000614a2c602583615327565b9150614a3782615968565b604082019050919050565b6000614a4f602983615327565b9150614a5a826159b7565b604082019050919050565b6000614a72602e83615327565b9150614a7d82615a06565b604082019050919050565b6000614a95602383615327565b9150614aa082615a55565b604082019050919050565b6000614ab8602a83615327565b9150614ac382615aa4565b604082019050919050565b6000614adb602e83615327565b9150614ae682615af3565b604082019050919050565b6000614afe602d83615327565b9150614b0982615b42565b604082019050919050565b6000614b21602883615327565b9150614b2c82615b91565b604082019050919050565b6000614b44602683615327565b9150614b4f82615be0565b604082019050919050565b6000614b67602b83615327565b9150614b7282615c2f565b604082019050919050565b6000614b8a601783615338565b9150614b9582615c7e565b601782019050919050565b6000614bad602983615327565b9150614bb882615ca7565b604082019050919050565b6000614bd0602983615327565b9150614bdb82615cf6565b604082019050919050565b6000614bf3602883615327565b9150614bfe82615d45565b604082019050919050565b6000614c16602183615327565b9150614c2182615d94565b604082019050919050565b6000614c39601183615338565b9150614c4482615de3565b601182019050919050565b6000614c5c602f83615327565b9150614c6782615e0c565b604082019050919050565b614c7b81615467565b82525050565b614c8a81615467565b82525050565b6000614c9c82846147f4565b915081905092915050565b6000614cb282614b7d565b9150614cbe828561486d565b9150614cc982614c2c565b9150614cd5828461486d565b91508190509392505050565b6000602082019050614cf66000830184614730565b92915050565b600060a082019050614d116000830188614730565b614d1e6020830187614730565b8181036040830152614d30818661473f565b90508181036060830152614d44818561473f565b90508181036080830152614d5881846147bb565b90509695505050505050565b600060a082019050614d796000830188614730565b614d866020830187614730565b614d936040830186614c81565b614da06060830185614c81565b8181036080830152614db281846147bb565b90509695505050505050565b60006020820190508181036000830152614dd8818461473f565b905092915050565b60006040820190508181036000830152614dfa818561473f565b90508181036020830152614e0e818461473f565b90509392505050565b6000602082019050614e2c600083018461479d565b92915050565b6000602082019050614e4760008301846147ac565b92915050565b6000602082019050614e626000830184614825565b92915050565b60006020820190508181036000830152614e828184614834565b905092915050565b60006020820190508181036000830152614ea38161489e565b9050919050565b60006020820190508181036000830152614ec3816148c1565b9050919050565b60006020820190508181036000830152614ee3816148e4565b9050919050565b60006020820190508181036000830152614f0381614907565b9050919050565b60006020820190508181036000830152614f238161492a565b9050919050565b60006020820190508181036000830152614f438161494d565b9050919050565b60006020820190508181036000830152614f6381614970565b9050919050565b60006020820190508181036000830152614f8381614993565b9050919050565b60006020820190508181036000830152614fa3816149b6565b9050919050565b60006020820190508181036000830152614fc3816149d9565b9050919050565b60006020820190508181036000830152614fe3816149fc565b9050919050565b6000602082019050818103600083015261500381614a1f565b9050919050565b6000602082019050818103600083015261502381614a42565b9050919050565b6000602082019050818103600083015261504381614a65565b9050919050565b6000602082019050818103600083015261506381614a88565b9050919050565b6000602082019050818103600083015261508381614aab565b9050919050565b600060208201905081810360008301526150a381614ace565b9050919050565b600060208201905081810360008301526150c381614af1565b9050919050565b600060208201905081810360008301526150e381614b14565b9050919050565b6000602082019050818103600083015261510381614b37565b9050919050565b6000602082019050818103600083015261512381614b5a565b9050919050565b6000602082019050818103600083015261514381614ba0565b9050919050565b6000602082019050818103600083015261516381614bc3565b9050919050565b6000602082019050818103600083015261518381614be6565b9050919050565b600060208201905081810360008301526151a381614c09565b9050919050565b600060208201905081810360008301526151c381614c4f565b9050919050565b60006020820190506151df6000830184614c81565b92915050565b60006040820190506151fa6000830185614c81565b6152076020830184614c81565b9392505050565b6000615218615229565b9050615224828261552e565b919050565b6000604051905090565b600067ffffffffffffffff82111561524e5761524d615606565b5b602082029050602081019050919050565b600067ffffffffffffffff82111561527a57615279615606565b5b602082029050602081019050919050565b600067ffffffffffffffff8211156152a6576152a5615606565b5b6152af82615657565b9050602081019050919050565b6000819050602082019050919050565b600081519050919050565b600081519050919050565b600081519050919050565b6000602082019050919050565b600082825260208201905092915050565b600082825260208201905092915050565b600081905092915050565b600082825260208201905092915050565b600081905092915050565b600061534e82615467565b915061535983615467565b9250827fffffffffffffffffffffffffffffffffffffffffffffffffffffffffffffffff0382111561538e5761538d6155a8565b5b828201905092915050565b60006153a482615467565b91506153af83615467565b9250817fffffffffffffffffffffffffffffffffffffffffffffffffffffffffffffffff04831182151516156153e8576153e76155a8565b5b828202905092915050565b60006153fe82615447565b9050919050565b60008115159050919050565b6000819050919050565b60007fffffffff0000000000000000000000000000000000000000000000000000000082169050919050565b600073ffffffffffffffffffffffffffffffffffffffff82169050919050565b6000819050919050565b600060ff82169050919050565b600061548982615471565b9050919050565b82818337600083830152505050565b60005b838110156154bd5780820151818401526020810190506154a2565b838111156154cc576000848401525b50505050565b60006154dd82615467565b915060008214156154f1576154f06155a8565b5b600182039050919050565b6000600282049050600182168061551457607f821691505b60208210811415615528576155276155d7565b5b50919050565b61553782615657565b810181811067ffffffffffffffff8211171561555657615555615606565b5b80604052505050565b600061556a82615467565b91507fffffffffffffffffffffffffffffffffffffffffffffffffffffffffffffffff82141561559d5761559c6155a8565b5b600182019050919050565b7f4e487b7100000000000000000000000000000000000000000000000000000000600052601160045260246000fd5b7f4e487b7100000000000000000000000000000000000000000000000000000000600052602260045260246000fd5b7f4e487b7100000000000000000000000000000000000000000000000000000000600052604160045260246000fd5b600060033d11156156545760046000803e615651600051615668565b90505b90565b6000601f19601f8301169050919050565b60008160e01c9050919050565b7f455243313135353a207472616e7366657220746f206e6f6e204552433131353560008201527f526563656976657220696d706c656d656e746572000000000000000000000000602082015250565b7f455243313135353a2063616c6c6572206973206e6f7420746f6b656e206f776e60008201527f6572206e6f7220617070726f7665640000000000000000000000000000000000602082015250565b7f537472696e67733a20686578206c656e67746820696e73756666696369656e74600082015250565b7f455243313135353a204552433131353552656365697665722072656a6563746560008201527f6420746f6b656e73000000000000000000000000000000000000000000000000602082015250565b7f5061757361626c653a206e6f7420706175736564000000000000000000000000600082015250565b7f455243313135353a206275726e20616d6f756e7420657863656564732062616c60008201527f616e636500000000000000000000000000000000000000000000000000000000602082015250565b7f46756e6374696f6e206d7573742062652063616c6c6564207468726f7567682060008201527f64656c656761746563616c6c0000000000000000000000000000000000000000602082015250565b7f455243313135353a2061646472657373207a65726f206973206e6f742061207660008201527f616c6964206f776e657200000000000000000000000000000000000000000000602082015250565b7f46756e6374696f6e206d7573742062652063616c6c6564207468726f7567682060008201527f6163746976652070726f78790000000000000000000000000000000000000000602082015250565b7f555550535570677261646561626c653a206d757374206e6f742062652063616c60008201527f6c6564207468726f7567682064656c656761746563616c6c0000000000000000602082015250565b7f5061757361626c653a2070617573656400000000000000000000000000000000600082015250565b7f455243313135353a207472616e7366657220746f20746865207a65726f20616460008201527f6472657373000000000000000000000000000000000000000000000000000000602082015250565b7f45524331393637557067726164653a20756e737570706f727465642070726f7860008201527f6961626c65555549440000000000000000000000000000000000000000000000602082015250565b7f496e697469616c697a61626c653a20636f6e747261637420697320616c72656160008201527f647920696e697469616c697a6564000000000000000000000000000000000000602082015250565b7f455243313135353a206275726e2066726f6d20746865207a65726f206164647260008201527f6573730000000000000000000000000000000000000000000000000000000000602082015250565b7f455243313135353a20696e73756666696369656e742062616c616e636520666f60008201527f72207472616e7366657200000000000000000000000000000000000000000000602082015250565b7f45524331393637557067726164653a206e657720696d706c656d656e7461746960008201527f6f6e206973206e6f742055555053000000000000000000000000000000000000602082015250565b7f455243313936373a206e657720696d706c656d656e746174696f6e206973206e60008201527f6f74206120636f6e747261637400000000000000000000000000000000000000602082015250565b7f455243313135353a206275726e20616d6f756e74206578636565647320746f7460008201527f616c537570706c79000000000000000000000000000000000000000000000000602082015250565b7f416464726573733a2064656c65676174652063616c6c20746f206e6f6e2d636f60008201527f6e74726163740000000000000000000000000000000000000000000000000000602082015250565b7f496e697469616c697a61626c653a20636f6e7472616374206973206e6f74206960008201527f6e697469616c697a696e67000000000000000000000000000000000000000000602082015250565b7f416363657373436f6e74726f6c3a206163636f756e7420000000000000000000600082015250565b7f455243313135353a2073657474696e6720617070726f76616c2073746174757360008201527f20666f722073656c660000000000000000000000000000000000000000000000602082015250565b7f455243313135353a206163636f756e747320616e6420696473206c656e67746860008201527f206d69736d617463680000000000000000000000000000000000000000000000602082015250565b7f455243313135353a2069647320616e6420616d6f756e7473206c656e6774682060008201527f6d69736d61746368000000000000000000000000000000000000000000000000602082015250565b7f455243313135353a206d696e7420746f20746865207a65726f2061646472657360008201527f7300000000000000000000000000000000000000000000000000000000000000602082015250565b7f206973206d697373696e6720726f6c6520000000000000000000000000000000600082015250565b7f416363657373436f6e74726f6c3a2063616e206f6e6c792072656e6f756e636560008201527f20726f6c657320666f722073656c660000000000000000000000000000000000602082015250565b600060443d1015615e6b57615eee565b615e73615229565b60043d036004823e80513d602482011167ffffffffffffffff82111715615e9b575050615eee565b808201805167ffffffffffffffff811115615eb95750505050615eee565b80602083010160043d038501811115615ed6575050505050615eee565b615ee58260200185018661552e565b82955050505050505b90565b615efa816153f3565b8114615f0557600080fd5b50565b615f1181615405565b8114615f1c57600080fd5b50565b615f2881615411565b8114615f3357600080fd5b50565b615f3f8161541b565b8114615f4a57600080fd5b50565b615f5681615467565b8114615f6157600080fd5b5056fe416464726573733a206c6f772d6c6576656c2064656c65676174652063616c6c206661696c656468747470733a2f2f73746167696e672d746f70736576656e2e7765622e6170702f6d6574612f7b69647da26469706673582212207951bfeb815df904c41a20a64dd03e9e53ae4b9d2ab2ee3c4a18c16501ba318264736f6c63430008020033",
  "linkReferences": {},
  "deployedLinkReferences": {}
}